{
	"contracts/exampleInt.sol": {
		"ExampleUint": {
			"abi": [
				{
					"inputs": [],
					"name": "decrementUint",
					"outputs": [],
					"stateMutability": "nonpayable",
					"type": "function"
				},
				{
					"inputs": [],
					"name": "decrementUintUnchecked",
					"outputs": [],
					"stateMutability": "nonpayable",
					"type": "function"
				},
				{
					"inputs": [],
					"name": "increment",
					"outputs": [],
					"stateMutability": "nonpayable",
					"type": "function"
				},
				{
					"inputs": [],
					"name": "myUint8",
					"outputs": [
						{
							"internalType": "uint8",
							"name": "",
							"type": "uint8"
						}
					],
					"stateMutability": "view",
					"type": "function"
				},
				{
					"inputs": [
						{
							"internalType": "uint8",
							"name": "_myUint8",
							"type": "uint8"
						}
					],
					"name": "setMyUInt",
					"outputs": [],
					"stateMutability": "nonpayable",
					"type": "function"
				}
			],
			"devdoc": {
				"kind": "dev",
				"methods": {},
				"version": 1
			},
			"evm": {
				"assembly": "    /* \"contracts/exampleInt.sol\":57:428  contract ExampleUint {... */\n  mstore(0x40, 0x80)\n  callvalue\n  dup1\n  iszero\n  tag_1\n  jumpi\n  0x00\n  dup1\n  revert\ntag_1:\n  pop\n  dataSize(sub_0)\n  dup1\n  dataOffset(sub_0)\n  0x00\n  codecopy\n  0x00\n  return\nstop\n\nsub_0: assembly {\n        /* \"contracts/exampleInt.sol\":57:428  contract ExampleUint {... */\n      mstore(0x40, 0x80)\n      callvalue\n      dup1\n      iszero\n      tag_1\n      jumpi\n      0x00\n      dup1\n      revert\n    tag_1:\n      pop\n      jumpi(tag_2, lt(calldatasize, 0x04))\n      shr(0xe0, calldataload(0x00))\n      dup1\n      0x46d9b81f\n      eq\n      tag_3\n      jumpi\n      dup1\n      0x8b1f61c8\n      eq\n      tag_4\n      jumpi\n      dup1\n      0xd09de08a\n      eq\n      tag_5\n      jumpi\n      dup1\n      0xda50eaee\n      eq\n      tag_6\n      jumpi\n      dup1\n      0xe2a4b2af\n      eq\n      tag_7\n      jumpi\n    tag_2:\n      0x00\n      dup1\n      revert\n        /* \"contracts/exampleInt.sol\":116:194  function setMyUInt (uint8 _myUint8) public {... */\n    tag_3:\n      tag_8\n      0x04\n      dup1\n      calldatasize\n      sub\n      dup2\n      add\n      swap1\n      tag_9\n      swap2\n      swap1\n      tag_10\n      jump\t// in\n    tag_9:\n      tag_11\n      jump\t// in\n    tag_8:\n      stop\n        /* \"contracts/exampleInt.sol\":200:301  function decrementUintUnchecked() public {... */\n    tag_4:\n      tag_12\n      tag_13\n      jump\t// in\n    tag_12:\n      stop\n        /* \"contracts/exampleInt.sol\":371:425  function increment() public {... */\n    tag_5:\n      tag_14\n      tag_15\n      jump\t// in\n    tag_14:\n      stop\n        /* \"contracts/exampleInt.sol\":307:365  function decrementUint() public {... */\n    tag_6:\n      tag_16\n      tag_17\n      jump\t// in\n    tag_16:\n      stop\n        /* \"contracts/exampleInt.sol\":89:109  uint8 public myUint8 */\n    tag_7:\n      tag_18\n      tag_19\n      jump\t// in\n    tag_18:\n      mload(0x40)\n      tag_20\n      swap2\n      swap1\n      tag_21\n      jump\t// in\n    tag_20:\n      mload(0x40)\n      dup1\n      swap2\n      sub\n      swap1\n      return\n        /* \"contracts/exampleInt.sol\":116:194  function setMyUInt (uint8 _myUint8) public {... */\n    tag_11:\n        /* \"contracts/exampleInt.sol\":179:187  _myUint8 */\n      dup1\n        /* \"contracts/exampleInt.sol\":169:176  myUint8 */\n      0x00\n      dup1\n        /* \"contracts/exampleInt.sol\":169:187  myUint8 = _myUint8 */\n      0x0100\n      exp\n      dup2\n      sload\n      dup2\n      0xff\n      mul\n      not\n      and\n      swap1\n      dup4\n      0xff\n      and\n      mul\n      or\n      swap1\n      sstore\n      pop\n        /* \"contracts/exampleInt.sol\":116:194  function setMyUInt (uint8 _myUint8) public {... */\n      pop\n      jump\t// out\n        /* \"contracts/exampleInt.sol\":200:301  function decrementUintUnchecked() public {... */\n    tag_13:\n        /* \"contracts/exampleInt.sol\":275:282  myUint8 */\n      0x00\n      dup1\n        /* \"contracts/exampleInt.sol\":275:284  myUint8-- */\n      dup2\n      dup2\n      swap1\n      sload\n      swap1\n      0x0100\n      exp\n      swap1\n      div\n      0xff\n      and\n      dup1\n      swap3\n      swap2\n      swap1\n      0x01\n      swap1\n      sub\n      swap2\n      swap1\n      0x0100\n      exp\n      dup2\n      sload\n      dup2\n      0xff\n      mul\n      not\n      and\n      swap1\n      dup4\n      0xff\n      and\n      mul\n      or\n      swap1\n      sstore\n      pop\n      pop\n        /* \"contracts/exampleInt.sol\":200:301  function decrementUintUnchecked() public {... */\n      jump\t// out\n        /* \"contracts/exampleInt.sol\":371:425  function increment() public {... */\n    tag_15:\n        /* \"contracts/exampleInt.sol\":409:416  myUint8 */\n      0x00\n      dup1\n        /* \"contracts/exampleInt.sol\":409:418  myUint8++ */\n      dup2\n      dup2\n      swap1\n      sload\n      swap1\n      0x0100\n      exp\n      swap1\n      div\n      0xff\n      and\n      dup1\n      swap3\n      swap2\n      swap1\n      tag_25\n      swap1\n      tag_26\n      jump\t// in\n    tag_25:\n      swap2\n      swap1\n      0x0100\n      exp\n      dup2\n      sload\n      dup2\n      0xff\n      mul\n      not\n      and\n      swap1\n      dup4\n      0xff\n      and\n      mul\n      or\n      swap1\n      sstore\n      pop\n      pop\n        /* \"contracts/exampleInt.sol\":371:425  function increment() public {... */\n      jump\t// out\n        /* \"contracts/exampleInt.sol\":307:365  function decrementUint() public {... */\n    tag_17:\n        /* \"contracts/exampleInt.sol\":349:356  myUint8 */\n      0x00\n      dup1\n        /* \"contracts/exampleInt.sol\":349:358  myUint8-- */\n      dup2\n      dup2\n      swap1\n      sload\n      swap1\n      0x0100\n      exp\n      swap1\n      div\n      0xff\n      and\n      dup1\n      swap3\n      swap2\n      swap1\n      tag_28\n      swap1\n      tag_29\n      jump\t// in\n    tag_28:\n      swap2\n      swap1\n      0x0100\n      exp\n      dup2\n      sload\n      dup2\n      0xff\n      mul\n      not\n      and\n      swap1\n      dup4\n      0xff\n      and\n      mul\n      or\n      swap1\n      sstore\n      pop\n      pop\n        /* \"contracts/exampleInt.sol\":307:365  function decrementUint() public {... */\n      jump\t// out\n        /* \"contracts/exampleInt.sol\":89:109  uint8 public myUint8 */\n    tag_19:\n      0x00\n      dup1\n      sload\n      swap1\n      0x0100\n      exp\n      swap1\n      div\n      0xff\n      and\n      dup2\n      jump\t// out\n        /* \"#utility.yul\":88:205   */\n    tag_31:\n        /* \"#utility.yul\":197:198   */\n      0x00\n        /* \"#utility.yul\":194:195   */\n      dup1\n        /* \"#utility.yul\":187:199   */\n      revert\n        /* \"#utility.yul\":334:420   */\n    tag_33:\n        /* \"#utility.yul\":369:376   */\n      0x00\n        /* \"#utility.yul\":409:413   */\n      0xff\n        /* \"#utility.yul\":402:407   */\n      dup3\n        /* \"#utility.yul\":398:414   */\n      and\n        /* \"#utility.yul\":387:414   */\n      swap1\n      pop\n        /* \"#utility.yul\":334:420   */\n      swap2\n      swap1\n      pop\n      jump\t// out\n        /* \"#utility.yul\":426:544   */\n    tag_34:\n        /* \"#utility.yul\":497:519   */\n      tag_44\n        /* \"#utility.yul\":513:518   */\n      dup2\n        /* \"#utility.yul\":497:519   */\n      tag_33\n      jump\t// in\n    tag_44:\n        /* \"#utility.yul\":490:495   */\n      dup2\n        /* \"#utility.yul\":487:520   */\n      eq\n        /* \"#utility.yul\":477:538   */\n      tag_45\n      jumpi\n        /* \"#utility.yul\":534:535   */\n      0x00\n        /* \"#utility.yul\":531:532   */\n      dup1\n        /* \"#utility.yul\":524:536   */\n      revert\n        /* \"#utility.yul\":477:538   */\n    tag_45:\n        /* \"#utility.yul\":426:544   */\n      pop\n      jump\t// out\n        /* \"#utility.yul\":550:685   */\n    tag_35:\n        /* \"#utility.yul\":594:599   */\n      0x00\n        /* \"#utility.yul\":632:638   */\n      dup2\n        /* \"#utility.yul\":619:639   */\n      calldataload\n        /* \"#utility.yul\":610:639   */\n      swap1\n      pop\n        /* \"#utility.yul\":648:679   */\n      tag_47\n        /* \"#utility.yul\":673:678   */\n      dup2\n        /* \"#utility.yul\":648:679   */\n      tag_34\n      jump\t// in\n    tag_47:\n        /* \"#utility.yul\":550:685   */\n      swap3\n      swap2\n      pop\n      pop\n      jump\t// out\n        /* \"#utility.yul\":691:1016   */\n    tag_10:\n        /* \"#utility.yul\":748:754   */\n      0x00\n        /* \"#utility.yul\":797:799   */\n      0x20\n        /* \"#utility.yul\":785:794   */\n      dup3\n        /* \"#utility.yul\":776:783   */\n      dup5\n        /* \"#utility.yul\":772:795   */\n      sub\n        /* \"#utility.yul\":768:800   */\n      slt\n        /* \"#utility.yul\":765:884   */\n      iszero\n      tag_49\n      jumpi\n        /* \"#utility.yul\":803:882   */\n      tag_50\n      tag_31\n      jump\t// in\n    tag_50:\n        /* \"#utility.yul\":765:884   */\n    tag_49:\n        /* \"#utility.yul\":923:924   */\n      0x00\n        /* \"#utility.yul\":948:999   */\n      tag_51\n        /* \"#utility.yul\":991:998   */\n      dup5\n        /* \"#utility.yul\":982:988   */\n      dup3\n        /* \"#utility.yul\":971:980   */\n      dup6\n        /* \"#utility.yul\":967:989   */\n      add\n        /* \"#utility.yul\":948:999   */\n      tag_35\n      jump\t// in\n    tag_51:\n        /* \"#utility.yul\":938:999   */\n      swap2\n      pop\n        /* \"#utility.yul\":894:1009   */\n      pop\n        /* \"#utility.yul\":691:1016   */\n      swap3\n      swap2\n      pop\n      pop\n      jump\t// out\n        /* \"#utility.yul\":1022:1134   */\n    tag_36:\n        /* \"#utility.yul\":1105:1127   */\n      tag_53\n        /* \"#utility.yul\":1121:1126   */\n      dup2\n        /* \"#utility.yul\":1105:1127   */\n      tag_33\n      jump\t// in\n    tag_53:\n        /* \"#utility.yul\":1100:1103   */\n      dup3\n        /* \"#utility.yul\":1093:1128   */\n      mstore\n        /* \"#utility.yul\":1022:1134   */\n      pop\n      pop\n      jump\t// out\n        /* \"#utility.yul\":1140:1354   */\n    tag_21:\n        /* \"#utility.yul\":1229:1233   */\n      0x00\n        /* \"#utility.yul\":1267:1269   */\n      0x20\n        /* \"#utility.yul\":1256:1265   */\n      dup3\n        /* \"#utility.yul\":1252:1270   */\n      add\n        /* \"#utility.yul\":1244:1270   */\n      swap1\n      pop\n        /* \"#utility.yul\":1280:1347   */\n      tag_55\n        /* \"#utility.yul\":1344:1345   */\n      0x00\n        /* \"#utility.yul\":1333:1342   */\n      dup4\n        /* \"#utility.yul\":1329:1346   */\n      add\n        /* \"#utility.yul\":1320:1326   */\n      dup5\n        /* \"#utility.yul\":1280:1347   */\n      tag_36\n      jump\t// in\n    tag_55:\n        /* \"#utility.yul\":1140:1354   */\n      swap3\n      swap2\n      pop\n      pop\n      jump\t// out\n        /* \"#utility.yul\":1360:1540   */\n    tag_37:\n        /* \"#utility.yul\":1408:1485   */\n      0x4e487b7100000000000000000000000000000000000000000000000000000000\n        /* \"#utility.yul\":1405:1406   */\n      0x00\n        /* \"#utility.yul\":1398:1486   */\n      mstore\n        /* \"#utility.yul\":1505:1509   */\n      0x11\n        /* \"#utility.yul\":1502:1503   */\n      0x04\n        /* \"#utility.yul\":1495:1510   */\n      mstore\n        /* \"#utility.yul\":1529:1533   */\n      0x24\n        /* \"#utility.yul\":1526:1527   */\n      0x00\n        /* \"#utility.yul\":1519:1534   */\n      revert\n        /* \"#utility.yul\":1546:1713   */\n    tag_26:\n        /* \"#utility.yul\":1583:1586   */\n      0x00\n        /* \"#utility.yul\":1606:1628   */\n      tag_58\n        /* \"#utility.yul\":1622:1627   */\n      dup3\n        /* \"#utility.yul\":1606:1628   */\n      tag_33\n      jump\t// in\n    tag_58:\n        /* \"#utility.yul\":1597:1628   */\n      swap2\n      pop\n        /* \"#utility.yul\":1650:1654   */\n      0xff\n        /* \"#utility.yul\":1643:1648   */\n      dup3\n        /* \"#utility.yul\":1640:1655   */\n      sub\n        /* \"#utility.yul\":1637:1678   */\n      tag_59\n      jumpi\n        /* \"#utility.yul\":1658:1676   */\n      tag_60\n      tag_37\n      jump\t// in\n    tag_60:\n        /* \"#utility.yul\":1637:1678   */\n    tag_59:\n        /* \"#utility.yul\":1705:1706   */\n      0x01\n        /* \"#utility.yul\":1698:1703   */\n      dup3\n        /* \"#utility.yul\":1694:1707   */\n      add\n        /* \"#utility.yul\":1687:1707   */\n      swap1\n      pop\n        /* \"#utility.yul\":1546:1713   */\n      swap2\n      swap1\n      pop\n      jump\t// out\n        /* \"#utility.yul\":1719:1886   */\n    tag_29:\n        /* \"#utility.yul\":1756:1759   */\n      0x00\n        /* \"#utility.yul\":1779:1801   */\n      tag_62\n        /* \"#utility.yul\":1795:1800   */\n      dup3\n        /* \"#utility.yul\":1779:1801   */\n      tag_33\n      jump\t// in\n    tag_62:\n        /* \"#utility.yul\":1770:1801   */\n      swap2\n      pop\n        /* \"#utility.yul\":1823:1827   */\n      0x00\n        /* \"#utility.yul\":1816:1821   */\n      dup3\n        /* \"#utility.yul\":1813:1828   */\n      sub\n        /* \"#utility.yul\":1810:1851   */\n      tag_63\n      jumpi\n        /* \"#utility.yul\":1831:1849   */\n      tag_64\n      tag_37\n      jump\t// in\n    tag_64:\n        /* \"#utility.yul\":1810:1851   */\n    tag_63:\n        /* \"#utility.yul\":1878:1879   */\n      0x01\n        /* \"#utility.yul\":1871:1876   */\n      dup3\n        /* \"#utility.yul\":1867:1880   */\n      sub\n        /* \"#utility.yul\":1860:1880   */\n      swap1\n      pop\n        /* \"#utility.yul\":1719:1886   */\n      swap2\n      swap1\n      pop\n      jump\t// out\n\n    auxdata: 0xa26469706673582212200fe172e851ffd9042315c4b7020946014b9ef99822569dfa4e027ca71a852a4f64736f6c634300080e0033\n}\n",
				"bytecode": {
					"linkReferences": {},
					"object": "608060405234801561001057600080fd5b506102d4806100206000396000f3fe608060405234801561001057600080fd5b50600436106100575760003560e01c806346d9b81f1461005c5780638b1f61c814610078578063d09de08a14610082578063da50eaee1461008c578063e2a4b2af14610096575b600080fd5b610076600480360381019061007191906101c6565b6100b4565b005b6100806100d1565b005b61008a610105565b005b61009461013e565b005b61009e610177565b6040516100ab9190610202565b60405180910390f35b806000806101000a81548160ff021916908360ff16021790555050565b60008081819054906101000a900460ff16809291906001900391906101000a81548160ff021916908360ff16021790555050565b60008081819054906101000a900460ff16809291906101239061024c565b91906101000a81548160ff021916908360ff16021790555050565b60008081819054906101000a900460ff168092919061015c90610275565b91906101000a81548160ff021916908360ff16021790555050565b60008054906101000a900460ff1681565b600080fd5b600060ff82169050919050565b6101a38161018d565b81146101ae57600080fd5b50565b6000813590506101c08161019a565b92915050565b6000602082840312156101dc576101db610188565b5b60006101ea848285016101b1565b91505092915050565b6101fc8161018d565b82525050565b600060208201905061021760008301846101f3565b92915050565b7f4e487b7100000000000000000000000000000000000000000000000000000000600052601160045260246000fd5b60006102578261018d565b915060ff820361026a5761026961021d565b5b600182019050919050565b60006102808261018d565b9150600082036102935761029261021d565b5b60018203905091905056fea26469706673582212200fe172e851ffd9042315c4b7020946014b9ef99822569dfa4e027ca71a852a4f64736f6c634300080e0033",
					"opcodes": "PUSH1 0x80 PUSH1 0x40 MSTORE CALLVALUE DUP1 ISZERO PUSH2 0x10 JUMPI PUSH1 0x0 DUP1 REVERT JUMPDEST POP PUSH2 0x2D4 DUP1 PUSH2 0x20 PUSH1 0x0 CODECOPY PUSH1 0x0 RETURN INVALID PUSH1 0x80 PUSH1 0x40 MSTORE CALLVALUE DUP1 ISZERO PUSH2 0x10 JUMPI PUSH1 0x0 DUP1 REVERT JUMPDEST POP PUSH1 0x4 CALLDATASIZE LT PUSH2 0x57 JUMPI PUSH1 0x0 CALLDATALOAD PUSH1 0xE0 SHR DUP1 PUSH4 0x46D9B81F EQ PUSH2 0x5C JUMPI DUP1 PUSH4 0x8B1F61C8 EQ PUSH2 0x78 JUMPI DUP1 PUSH4 0xD09DE08A EQ PUSH2 0x82 JUMPI DUP1 PUSH4 0xDA50EAEE EQ PUSH2 0x8C JUMPI DUP1 PUSH4 0xE2A4B2AF EQ PUSH2 0x96 JUMPI JUMPDEST PUSH1 0x0 DUP1 REVERT JUMPDEST PUSH2 0x76 PUSH1 0x4 DUP1 CALLDATASIZE SUB DUP2 ADD SWAP1 PUSH2 0x71 SWAP2 SWAP1 PUSH2 0x1C6 JUMP JUMPDEST PUSH2 0xB4 JUMP JUMPDEST STOP JUMPDEST PUSH2 0x80 PUSH2 0xD1 JUMP JUMPDEST STOP JUMPDEST PUSH2 0x8A PUSH2 0x105 JUMP JUMPDEST STOP JUMPDEST PUSH2 0x94 PUSH2 0x13E JUMP JUMPDEST STOP JUMPDEST PUSH2 0x9E PUSH2 0x177 JUMP JUMPDEST PUSH1 0x40 MLOAD PUSH2 0xAB SWAP2 SWAP1 PUSH2 0x202 JUMP JUMPDEST PUSH1 0x40 MLOAD DUP1 SWAP2 SUB SWAP1 RETURN JUMPDEST DUP1 PUSH1 0x0 DUP1 PUSH2 0x100 EXP DUP2 SLOAD DUP2 PUSH1 0xFF MUL NOT AND SWAP1 DUP4 PUSH1 0xFF AND MUL OR SWAP1 SSTORE POP POP JUMP JUMPDEST PUSH1 0x0 DUP1 DUP2 DUP2 SWAP1 SLOAD SWAP1 PUSH2 0x100 EXP SWAP1 DIV PUSH1 0xFF AND DUP1 SWAP3 SWAP2 SWAP1 PUSH1 0x1 SWAP1 SUB SWAP2 SWAP1 PUSH2 0x100 EXP DUP2 SLOAD DUP2 PUSH1 0xFF MUL NOT AND SWAP1 DUP4 PUSH1 0xFF AND MUL OR SWAP1 SSTORE POP POP JUMP JUMPDEST PUSH1 0x0 DUP1 DUP2 DUP2 SWAP1 SLOAD SWAP1 PUSH2 0x100 EXP SWAP1 DIV PUSH1 0xFF AND DUP1 SWAP3 SWAP2 SWAP1 PUSH2 0x123 SWAP1 PUSH2 0x24C JUMP JUMPDEST SWAP2 SWAP1 PUSH2 0x100 EXP DUP2 SLOAD DUP2 PUSH1 0xFF MUL NOT AND SWAP1 DUP4 PUSH1 0xFF AND MUL OR SWAP1 SSTORE POP POP JUMP JUMPDEST PUSH1 0x0 DUP1 DUP2 DUP2 SWAP1 SLOAD SWAP1 PUSH2 0x100 EXP SWAP1 DIV PUSH1 0xFF AND DUP1 SWAP3 SWAP2 SWAP1 PUSH2 0x15C SWAP1 PUSH2 0x275 JUMP JUMPDEST SWAP2 SWAP1 PUSH2 0x100 EXP DUP2 SLOAD DUP2 PUSH1 0xFF MUL NOT AND SWAP1 DUP4 PUSH1 0xFF AND MUL OR SWAP1 SSTORE POP POP JUMP JUMPDEST PUSH1 0x0 DUP1 SLOAD SWAP1 PUSH2 0x100 EXP SWAP1 DIV PUSH1 0xFF AND DUP2 JUMP JUMPDEST PUSH1 0x0 DUP1 REVERT JUMPDEST PUSH1 0x0 PUSH1 0xFF DUP3 AND SWAP1 POP SWAP2 SWAP1 POP JUMP JUMPDEST PUSH2 0x1A3 DUP2 PUSH2 0x18D JUMP JUMPDEST DUP2 EQ PUSH2 0x1AE JUMPI PUSH1 0x0 DUP1 REVERT JUMPDEST POP JUMP JUMPDEST PUSH1 0x0 DUP2 CALLDATALOAD SWAP1 POP PUSH2 0x1C0 DUP2 PUSH2 0x19A JUMP JUMPDEST SWAP3 SWAP2 POP POP JUMP JUMPDEST PUSH1 0x0 PUSH1 0x20 DUP3 DUP5 SUB SLT ISZERO PUSH2 0x1DC JUMPI PUSH2 0x1DB PUSH2 0x188 JUMP JUMPDEST JUMPDEST PUSH1 0x0 PUSH2 0x1EA DUP5 DUP3 DUP6 ADD PUSH2 0x1B1 JUMP JUMPDEST SWAP2 POP POP SWAP3 SWAP2 POP POP JUMP JUMPDEST PUSH2 0x1FC DUP2 PUSH2 0x18D JUMP JUMPDEST DUP3 MSTORE POP POP JUMP JUMPDEST PUSH1 0x0 PUSH1 0x20 DUP3 ADD SWAP1 POP PUSH2 0x217 PUSH1 0x0 DUP4 ADD DUP5 PUSH2 0x1F3 JUMP JUMPDEST SWAP3 SWAP2 POP POP JUMP JUMPDEST PUSH32 0x4E487B7100000000000000000000000000000000000000000000000000000000 PUSH1 0x0 MSTORE PUSH1 0x11 PUSH1 0x4 MSTORE PUSH1 0x24 PUSH1 0x0 REVERT JUMPDEST PUSH1 0x0 PUSH2 0x257 DUP3 PUSH2 0x18D JUMP JUMPDEST SWAP2 POP PUSH1 0xFF DUP3 SUB PUSH2 0x26A JUMPI PUSH2 0x269 PUSH2 0x21D JUMP JUMPDEST JUMPDEST PUSH1 0x1 DUP3 ADD SWAP1 POP SWAP2 SWAP1 POP JUMP JUMPDEST PUSH1 0x0 PUSH2 0x280 DUP3 PUSH2 0x18D JUMP JUMPDEST SWAP2 POP PUSH1 0x0 DUP3 SUB PUSH2 0x293 JUMPI PUSH2 0x292 PUSH2 0x21D JUMP JUMPDEST JUMPDEST PUSH1 0x1 DUP3 SUB SWAP1 POP SWAP2 SWAP1 POP JUMP INVALID LOG2 PUSH5 0x6970667358 0x22 SLT KECCAK256 0xF 0xE1 PUSH19 0xE851FFD9042315C4B7020946014B9EF9982256 SWAP14 STATICCALL 0x4E MUL PUSH29 0xA71A852A4F64736F6C634300080E003300000000000000000000000000 "
				},
				"gasEstimates": {
					"creation": {
						"codeDepositCost": "144800",
						"executionCost": "190",
						"totalCost": "144990"
					},
					"external": {
						"decrementUint()": "26743",
						"decrementUintUnchecked()": "26576",
						"increment()": "26721",
						"myUint8()": "2534",
						"setMyUInt(uint8)": "24657"
					}
				},
				"methodIdentifiers": {
					"decrementUint()": "da50eaee",
					"decrementUintUnchecked()": "8b1f61c8",
					"increment()": "d09de08a",
					"myUint8()": "e2a4b2af",
					"setMyUInt(uint8)": "46d9b81f"
				}
			},
			"storageLayout": {
				"storage": [
					{
						"astId": 3,
						"contract": "contracts/exampleInt.sol:ExampleUint",
						"label": "myUint8",
						"offset": 0,
						"slot": "0",
						"type": "t_uint8"
					}
				],
				"types": {
					"t_uint8": {
						"encoding": "inplace",
						"label": "uint8",
						"numberOfBytes": "1"
					}
				}
			},
			"userdoc": {
				"kind": "user",
				"methods": {},
				"version": 1
			}
		}
	}
}