{
	"contracts/exampleMappingStruct.sol": {
		"ExampleMappingStruct": {
			"abi": [
				{
					"inputs": [
						{
							"internalType": "address",
							"name": "",
							"type": "address"
						}
					],
					"name": "balances",
					"outputs": [
						{
							"internalType": "uint256",
							"name": "totalBal",
							"type": "uint256"
						},
						{
							"internalType": "uint256",
							"name": "numDeposits",
							"type": "uint256"
						},
						{
							"internalType": "uint256",
							"name": "numWithdrawals",
							"type": "uint256"
						}
					],
					"stateMutability": "view",
					"type": "function"
				},
				{
					"inputs": [],
					"name": "depositMoney",
					"outputs": [],
					"stateMutability": "payable",
					"type": "function"
				},
				{
					"inputs": [
						{
							"internalType": "address",
							"name": "_from",
							"type": "address"
						},
						{
							"internalType": "uint256",
							"name": "_depositNum",
							"type": "uint256"
						}
					],
					"name": "getDepositDetail",
					"outputs": [
						{
							"components": [
								{
									"internalType": "uint256",
									"name": "amount",
									"type": "uint256"
								},
								{
									"internalType": "uint256",
									"name": "timestamp",
									"type": "uint256"
								}
							],
							"internalType": "struct ExampleMappingStruct.Transaction",
							"name": "",
							"type": "tuple"
						}
					],
					"stateMutability": "view",
					"type": "function"
				},
				{
					"inputs": [
						{
							"internalType": "address",
							"name": "_from",
							"type": "address"
						},
						{
							"internalType": "uint256",
							"name": "_depositNum",
							"type": "uint256"
						}
					],
					"name": "getWithdrawalDetail",
					"outputs": [
						{
							"components": [
								{
									"internalType": "uint256",
									"name": "amount",
									"type": "uint256"
								},
								{
									"internalType": "uint256",
									"name": "timestamp",
									"type": "uint256"
								}
							],
							"internalType": "struct ExampleMappingStruct.Transaction",
							"name": "",
							"type": "tuple"
						}
					],
					"stateMutability": "view",
					"type": "function"
				},
				{
					"inputs": [
						{
							"internalType": "uint256",
							"name": "_amount",
							"type": "uint256"
						}
					],
					"name": "withdrawMoney",
					"outputs": [],
					"stateMutability": "payable",
					"type": "function"
				}
			],
			"devdoc": {
				"kind": "dev",
				"methods": {},
				"version": 1
			},
			"evm": {
				"assembly": "    /* \"contracts/exampleMappingStruct.sol\":57:1423  contract ExampleMappingStruct {... */\n  mstore(0x40, 0x80)\n  callvalue\n  dup1\n  iszero\n  tag_1\n  jumpi\n  0x00\n  dup1\n  revert\ntag_1:\n  pop\n  dataSize(sub_0)\n  dup1\n  dataOffset(sub_0)\n  0x00\n  codecopy\n  0x00\n  return\nstop\n\nsub_0: assembly {\n        /* \"contracts/exampleMappingStruct.sol\":57:1423  contract ExampleMappingStruct {... */\n      mstore(0x40, 0x80)\n      jumpi(tag_1, lt(calldatasize, 0x04))\n      shr(0xe0, calldataload(0x00))\n      dup1\n      0x16c05aa2\n      eq\n      tag_2\n      jumpi\n      dup1\n      0x27e235e3\n      eq\n      tag_3\n      jumpi\n      dup1\n      0x54876921\n      eq\n      tag_4\n      jumpi\n      dup1\n      0x579c15c5\n      eq\n      tag_5\n      jumpi\n      dup1\n      0x6f06ee50\n      eq\n      tag_6\n      jumpi\n    tag_1:\n      0x00\n      dup1\n      revert\n        /* \"contracts/exampleMappingStruct.sol\":764:1077  function depositMoney() public payable {... */\n    tag_2:\n      tag_7\n      tag_8\n      jump\t// in\n    tag_7:\n      stop\n        /* \"contracts/exampleMappingStruct.sol\":377:420  mapping(address => Balance) public balances */\n    tag_3:\n      callvalue\n      dup1\n      iszero\n      tag_9\n      jumpi\n      0x00\n      dup1\n      revert\n    tag_9:\n      pop\n      tag_10\n      0x04\n      dup1\n      calldatasize\n      sub\n      dup2\n      add\n      swap1\n      tag_11\n      swap2\n      swap1\n      tag_12\n      jump\t// in\n    tag_11:\n      tag_13\n      jump\t// in\n    tag_10:\n      mload(0x40)\n      tag_14\n      swap4\n      swap3\n      swap2\n      swap1\n      tag_15\n      jump\t// in\n    tag_14:\n      mload(0x40)\n      dup1\n      swap2\n      sub\n      swap1\n      return\n        /* \"contracts/exampleMappingStruct.sol\":1083:1420  function withdrawMoney(uint _amount) public payable {... */\n    tag_4:\n      tag_16\n      0x04\n      dup1\n      calldatasize\n      sub\n      dup2\n      add\n      swap1\n      tag_17\n      swap2\n      swap1\n      tag_18\n      jump\t// in\n    tag_17:\n      tag_19\n      jump\t// in\n    tag_16:\n      stop\n        /* \"contracts/exampleMappingStruct.sol\":427:588  function getDepositDetail (address _from, uint _depositNum) public view returns(Transaction memory) {... */\n    tag_5:\n      callvalue\n      dup1\n      iszero\n      tag_20\n      jumpi\n      0x00\n      dup1\n      revert\n    tag_20:\n      pop\n      tag_21\n      0x04\n      dup1\n      calldatasize\n      sub\n      dup2\n      add\n      swap1\n      tag_22\n      swap2\n      swap1\n      tag_23\n      jump\t// in\n    tag_22:\n      tag_24\n      jump\t// in\n    tag_21:\n      mload(0x40)\n      tag_25\n      swap2\n      swap1\n      tag_26\n      jump\t// in\n    tag_25:\n      mload(0x40)\n      dup1\n      swap2\n      sub\n      swap1\n      return\n        /* \"contracts/exampleMappingStruct.sol\":594:758  function getWithdrawalDetail (address _from, uint _depositNum) public view returns(Transaction memory) {... */\n    tag_6:\n      callvalue\n      dup1\n      iszero\n      tag_27\n      jumpi\n      0x00\n      dup1\n      revert\n    tag_27:\n      pop\n      tag_28\n      0x04\n      dup1\n      calldatasize\n      sub\n      dup2\n      add\n      swap1\n      tag_29\n      swap2\n      swap1\n      tag_23\n      jump\t// in\n    tag_29:\n      tag_30\n      jump\t// in\n    tag_28:\n      mload(0x40)\n      tag_31\n      swap2\n      swap1\n      tag_26\n      jump\t// in\n    tag_31:\n      mload(0x40)\n      dup1\n      swap2\n      sub\n      swap1\n      return\n        /* \"contracts/exampleMappingStruct.sol\":764:1077  function depositMoney() public payable {... */\n    tag_8:\n        /* \"contracts/exampleMappingStruct.sol\":846:855  msg.value */\n      callvalue\n        /* \"contracts/exampleMappingStruct.sol\":813:821  balances */\n      0x00\n        /* \"contracts/exampleMappingStruct.sol\":813:833  balances[msg.sender] */\n      dup1\n        /* \"contracts/exampleMappingStruct.sol\":822:832  msg.sender */\n      caller\n        /* \"contracts/exampleMappingStruct.sol\":813:833  balances[msg.sender] */\n      0xffffffffffffffffffffffffffffffffffffffff\n      and\n      0xffffffffffffffffffffffffffffffffffffffff\n      and\n      dup2\n      mstore\n      0x20\n      add\n      swap1\n      dup2\n      mstore\n      0x20\n      add\n      0x00\n      keccak256\n        /* \"contracts/exampleMappingStruct.sol\":813:842  balances[msg.sender].totalBal */\n      0x00\n      add\n      0x00\n        /* \"contracts/exampleMappingStruct.sol\":813:855  balances[msg.sender].totalBal += msg.value */\n      dup3\n      dup3\n      sload\n      tag_33\n      swap2\n      swap1\n      tag_34\n      jump\t// in\n    tag_33:\n      swap3\n      pop\n      pop\n      dup2\n      swap1\n      sstore\n      pop\n        /* \"contracts/exampleMappingStruct.sol\":866:892  Transaction memory deposit */\n      0x00\n        /* \"contracts/exampleMappingStruct.sol\":895:934  Transaction(msg.value, block.timestamp) */\n      mload(0x40)\n      dup1\n      0x40\n      add\n      0x40\n      mstore\n      dup1\n        /* \"contracts/exampleMappingStruct.sol\":907:916  msg.value */\n      callvalue\n        /* \"contracts/exampleMappingStruct.sol\":895:934  Transaction(msg.value, block.timestamp) */\n      dup2\n      mstore\n      0x20\n      add\n        /* \"contracts/exampleMappingStruct.sol\":918:933  block.timestamp */\n      timestamp\n        /* \"contracts/exampleMappingStruct.sol\":895:934  Transaction(msg.value, block.timestamp) */\n      dup2\n      mstore\n      pop\n        /* \"contracts/exampleMappingStruct.sol\":866:934  Transaction memory deposit = Transaction(msg.value, block.timestamp) */\n      swap1\n      pop\n        /* \"contracts/exampleMappingStruct.sol\":1019:1026  deposit */\n      dup1\n        /* \"contracts/exampleMappingStruct.sol\":953:961  balances */\n      0x00\n        /* \"contracts/exampleMappingStruct.sol\":953:973  balances[msg.sender] */\n      dup1\n        /* \"contracts/exampleMappingStruct.sol\":962:972  msg.sender */\n      caller\n        /* \"contracts/exampleMappingStruct.sol\":953:973  balances[msg.sender] */\n      0xffffffffffffffffffffffffffffffffffffffff\n      and\n      0xffffffffffffffffffffffffffffffffffffffff\n      and\n      dup2\n      mstore\n      0x20\n      add\n      swap1\n      dup2\n      mstore\n      0x20\n      add\n      0x00\n      keccak256\n        /* \"contracts/exampleMappingStruct.sol\":953:982  balances[msg.sender].deposits */\n      0x03\n      add\n        /* \"contracts/exampleMappingStruct.sol\":953:1016  balances[msg.sender].deposits[balances[msg.sender].numDeposits] */\n      0x00\n        /* \"contracts/exampleMappingStruct.sol\":983:991  balances */\n      dup1\n        /* \"contracts/exampleMappingStruct.sol\":983:1003  balances[msg.sender] */\n      0x00\n        /* \"contracts/exampleMappingStruct.sol\":992:1002  msg.sender */\n      caller\n        /* \"contracts/exampleMappingStruct.sol\":983:1003  balances[msg.sender] */\n      0xffffffffffffffffffffffffffffffffffffffff\n      and\n      0xffffffffffffffffffffffffffffffffffffffff\n      and\n      dup2\n      mstore\n      0x20\n      add\n      swap1\n      dup2\n      mstore\n      0x20\n      add\n      0x00\n      keccak256\n        /* \"contracts/exampleMappingStruct.sol\":983:1015  balances[msg.sender].numDeposits */\n      0x01\n      add\n      sload\n        /* \"contracts/exampleMappingStruct.sol\":953:1016  balances[msg.sender].deposits[balances[msg.sender].numDeposits] */\n      dup2\n      mstore\n      0x20\n      add\n      swap1\n      dup2\n      mstore\n      0x20\n      add\n      0x00\n      keccak256\n        /* \"contracts/exampleMappingStruct.sol\":953:1026  balances[msg.sender].deposits[balances[msg.sender].numDeposits] = deposit */\n      0x00\n      dup3\n      add\n      mload\n      dup2\n      0x00\n      add\n      sstore\n      0x20\n      dup3\n      add\n      mload\n      dup2\n      0x01\n      add\n      sstore\n      swap1\n      pop\n      pop\n        /* \"contracts/exampleMappingStruct.sol\":1036:1044  balances */\n      0x00\n        /* \"contracts/exampleMappingStruct.sol\":1036:1056  balances[msg.sender] */\n      dup1\n        /* \"contracts/exampleMappingStruct.sol\":1045:1055  msg.sender */\n      caller\n        /* \"contracts/exampleMappingStruct.sol\":1036:1056  balances[msg.sender] */\n      0xffffffffffffffffffffffffffffffffffffffff\n      and\n      0xffffffffffffffffffffffffffffffffffffffff\n      and\n      dup2\n      mstore\n      0x20\n      add\n      swap1\n      dup2\n      mstore\n      0x20\n      add\n      0x00\n      keccak256\n        /* \"contracts/exampleMappingStruct.sol\":1036:1068  balances[msg.sender].numDeposits */\n      0x01\n      add\n      0x00\n        /* \"contracts/exampleMappingStruct.sol\":1036:1070  balances[msg.sender].numDeposits++ */\n      dup2\n      sload\n      dup1\n      swap3\n      swap2\n      swap1\n      tag_35\n      swap1\n      tag_36\n      jump\t// in\n    tag_35:\n      swap2\n      swap1\n      pop\n      sstore\n      pop\n        /* \"contracts/exampleMappingStruct.sol\":803:1077  {... */\n      pop\n        /* \"contracts/exampleMappingStruct.sol\":764:1077  function depositMoney() public payable {... */\n      jump\t// out\n        /* \"contracts/exampleMappingStruct.sol\":377:420  mapping(address => Balance) public balances */\n    tag_13:\n      mstore(0x20, 0x00)\n      dup1\n      0x00\n      mstore\n      keccak256(0x00, 0x40)\n      0x00\n      swap2\n      pop\n      swap1\n      pop\n      dup1\n      0x00\n      add\n      sload\n      swap1\n      dup1\n      0x01\n      add\n      sload\n      swap1\n      dup1\n      0x02\n      add\n      sload\n      swap1\n      pop\n      dup4\n      jump\t// out\n        /* \"contracts/exampleMappingStruct.sol\":1083:1420  function withdrawMoney(uint _amount) public payable {... */\n    tag_19:\n        /* \"contracts/exampleMappingStruct.sol\":1178:1185  _amount */\n      dup1\n        /* \"contracts/exampleMappingStruct.sol\":1145:1153  balances */\n      0x00\n        /* \"contracts/exampleMappingStruct.sol\":1145:1165  balances[msg.sender] */\n      dup1\n        /* \"contracts/exampleMappingStruct.sol\":1154:1164  msg.sender */\n      caller\n        /* \"contracts/exampleMappingStruct.sol\":1145:1165  balances[msg.sender] */\n      0xffffffffffffffffffffffffffffffffffffffff\n      and\n      0xffffffffffffffffffffffffffffffffffffffff\n      and\n      dup2\n      mstore\n      0x20\n      add\n      swap1\n      dup2\n      mstore\n      0x20\n      add\n      0x00\n      keccak256\n        /* \"contracts/exampleMappingStruct.sol\":1145:1174  balances[msg.sender].totalBal */\n      0x00\n      add\n      0x00\n        /* \"contracts/exampleMappingStruct.sol\":1145:1185  balances[msg.sender].totalBal -= _amount */\n      dup3\n      dup3\n      sload\n      tag_38\n      swap2\n      swap1\n      tag_39\n      jump\t// in\n    tag_38:\n      swap3\n      pop\n      pop\n      dup2\n      swap1\n      sstore\n      pop\n        /* \"contracts/exampleMappingStruct.sol\":1196:1225  Transaction memory withdrawal */\n      0x00\n        /* \"contracts/exampleMappingStruct.sol\":1228:1265  Transaction(_amount, block.timestamp) */\n      mload(0x40)\n      dup1\n      0x40\n      add\n      0x40\n      mstore\n      dup1\n        /* \"contracts/exampleMappingStruct.sol\":1240:1247  _amount */\n      dup4\n        /* \"contracts/exampleMappingStruct.sol\":1228:1265  Transaction(_amount, block.timestamp) */\n      dup2\n      mstore\n      0x20\n      add\n        /* \"contracts/exampleMappingStruct.sol\":1249:1264  block.timestamp */\n      timestamp\n        /* \"contracts/exampleMappingStruct.sol\":1228:1265  Transaction(_amount, block.timestamp) */\n      dup2\n      mstore\n      pop\n        /* \"contracts/exampleMappingStruct.sol\":1196:1265  Transaction memory withdrawal = Transaction(_amount, block.timestamp) */\n      swap1\n      pop\n        /* \"contracts/exampleMappingStruct.sol\":1356:1366  withdrawal */\n      dup1\n        /* \"contracts/exampleMappingStruct.sol\":1284:1292  balances */\n      0x00\n        /* \"contracts/exampleMappingStruct.sol\":1284:1304  balances[msg.sender] */\n      dup1\n        /* \"contracts/exampleMappingStruct.sol\":1293:1303  msg.sender */\n      caller\n        /* \"contracts/exampleMappingStruct.sol\":1284:1304  balances[msg.sender] */\n      0xffffffffffffffffffffffffffffffffffffffff\n      and\n      0xffffffffffffffffffffffffffffffffffffffff\n      and\n      dup2\n      mstore\n      0x20\n      add\n      swap1\n      dup2\n      mstore\n      0x20\n      add\n      0x00\n      keccak256\n        /* \"contracts/exampleMappingStruct.sol\":1284:1316  balances[msg.sender].withdrawals */\n      0x04\n      add\n        /* \"contracts/exampleMappingStruct.sol\":1284:1353  balances[msg.sender].withdrawals[balances[msg.sender].numWithdrawals] */\n      0x00\n        /* \"contracts/exampleMappingStruct.sol\":1317:1325  balances */\n      dup1\n        /* \"contracts/exampleMappingStruct.sol\":1317:1337  balances[msg.sender] */\n      0x00\n        /* \"contracts/exampleMappingStruct.sol\":1326:1336  msg.sender */\n      caller\n        /* \"contracts/exampleMappingStruct.sol\":1317:1337  balances[msg.sender] */\n      0xffffffffffffffffffffffffffffffffffffffff\n      and\n      0xffffffffffffffffffffffffffffffffffffffff\n      and\n      dup2\n      mstore\n      0x20\n      add\n      swap1\n      dup2\n      mstore\n      0x20\n      add\n      0x00\n      keccak256\n        /* \"contracts/exampleMappingStruct.sol\":1317:1352  balances[msg.sender].numWithdrawals */\n      0x02\n      add\n      sload\n        /* \"contracts/exampleMappingStruct.sol\":1284:1353  balances[msg.sender].withdrawals[balances[msg.sender].numWithdrawals] */\n      dup2\n      mstore\n      0x20\n      add\n      swap1\n      dup2\n      mstore\n      0x20\n      add\n      0x00\n      keccak256\n        /* \"contracts/exampleMappingStruct.sol\":1284:1366  balances[msg.sender].withdrawals[balances[msg.sender].numWithdrawals] = withdrawal */\n      0x00\n      dup3\n      add\n      mload\n      dup2\n      0x00\n      add\n      sstore\n      0x20\n      dup3\n      add\n      mload\n      dup2\n      0x01\n      add\n      sstore\n      swap1\n      pop\n      pop\n        /* \"contracts/exampleMappingStruct.sol\":1376:1384  balances */\n      0x00\n        /* \"contracts/exampleMappingStruct.sol\":1376:1396  balances[msg.sender] */\n      dup1\n        /* \"contracts/exampleMappingStruct.sol\":1385:1395  msg.sender */\n      caller\n        /* \"contracts/exampleMappingStruct.sol\":1376:1396  balances[msg.sender] */\n      0xffffffffffffffffffffffffffffffffffffffff\n      and\n      0xffffffffffffffffffffffffffffffffffffffff\n      and\n      dup2\n      mstore\n      0x20\n      add\n      swap1\n      dup2\n      mstore\n      0x20\n      add\n      0x00\n      keccak256\n        /* \"contracts/exampleMappingStruct.sol\":1376:1411  balances[msg.sender].numWithdrawals */\n      0x02\n      add\n      0x00\n        /* \"contracts/exampleMappingStruct.sol\":1376:1413  balances[msg.sender].numWithdrawals++ */\n      dup2\n      sload\n      dup1\n      swap3\n      swap2\n      swap1\n      tag_40\n      swap1\n      tag_36\n      jump\t// in\n    tag_40:\n      swap2\n      swap1\n      pop\n      sstore\n      pop\n        /* \"contracts/exampleMappingStruct.sol\":1135:1420  {... */\n      pop\n        /* \"contracts/exampleMappingStruct.sol\":1083:1420  function withdrawMoney(uint _amount) public payable {... */\n      pop\n      jump\t// out\n        /* \"contracts/exampleMappingStruct.sol\":427:588  function getDepositDetail (address _from, uint _depositNum) public view returns(Transaction memory) {... */\n    tag_24:\n        /* \"contracts/exampleMappingStruct.sol\":507:525  Transaction memory */\n      tag_41\n      tag_42\n      jump\t// in\n    tag_41:\n        /* \"contracts/exampleMappingStruct.sol\":544:552  balances */\n      0x00\n        /* \"contracts/exampleMappingStruct.sol\":544:559  balances[_from] */\n      dup1\n        /* \"contracts/exampleMappingStruct.sol\":553:558  _from */\n      dup5\n        /* \"contracts/exampleMappingStruct.sol\":544:559  balances[_from] */\n      0xffffffffffffffffffffffffffffffffffffffff\n      and\n      0xffffffffffffffffffffffffffffffffffffffff\n      and\n      dup2\n      mstore\n      0x20\n      add\n      swap1\n      dup2\n      mstore\n      0x20\n      add\n      0x00\n      keccak256\n        /* \"contracts/exampleMappingStruct.sol\":544:568  balances[_from].deposits */\n      0x03\n      add\n        /* \"contracts/exampleMappingStruct.sol\":544:581  balances[_from].deposits[_depositNum] */\n      0x00\n        /* \"contracts/exampleMappingStruct.sol\":569:580  _depositNum */\n      dup4\n        /* \"contracts/exampleMappingStruct.sol\":544:581  balances[_from].deposits[_depositNum] */\n      dup2\n      mstore\n      0x20\n      add\n      swap1\n      dup2\n      mstore\n      0x20\n      add\n      0x00\n      keccak256\n        /* \"contracts/exampleMappingStruct.sol\":537:581  return balances[_from].deposits[_depositNum] */\n      mload(0x40)\n      dup1\n      0x40\n      add\n      0x40\n      mstore\n      swap1\n      dup2\n      0x00\n      dup3\n      add\n      sload\n      dup2\n      mstore\n      0x20\n      add\n      0x01\n      dup3\n      add\n      sload\n      dup2\n      mstore\n      pop\n      pop\n      swap1\n      pop\n        /* \"contracts/exampleMappingStruct.sol\":427:588  function getDepositDetail (address _from, uint _depositNum) public view returns(Transaction memory) {... */\n      swap3\n      swap2\n      pop\n      pop\n      jump\t// out\n        /* \"contracts/exampleMappingStruct.sol\":594:758  function getWithdrawalDetail (address _from, uint _depositNum) public view returns(Transaction memory) {... */\n    tag_30:\n        /* \"contracts/exampleMappingStruct.sol\":677:695  Transaction memory */\n      tag_44\n      tag_42\n      jump\t// in\n    tag_44:\n        /* \"contracts/exampleMappingStruct.sol\":714:722  balances */\n      0x00\n        /* \"contracts/exampleMappingStruct.sol\":714:729  balances[_from] */\n      dup1\n        /* \"contracts/exampleMappingStruct.sol\":723:728  _from */\n      dup5\n        /* \"contracts/exampleMappingStruct.sol\":714:729  balances[_from] */\n      0xffffffffffffffffffffffffffffffffffffffff\n      and\n      0xffffffffffffffffffffffffffffffffffffffff\n      and\n      dup2\n      mstore\n      0x20\n      add\n      swap1\n      dup2\n      mstore\n      0x20\n      add\n      0x00\n      keccak256\n        /* \"contracts/exampleMappingStruct.sol\":714:738  balances[_from].deposits */\n      0x03\n      add\n        /* \"contracts/exampleMappingStruct.sol\":714:751  balances[_from].deposits[_depositNum] */\n      0x00\n        /* \"contracts/exampleMappingStruct.sol\":739:750  _depositNum */\n      dup4\n        /* \"contracts/exampleMappingStruct.sol\":714:751  balances[_from].deposits[_depositNum] */\n      dup2\n      mstore\n      0x20\n      add\n      swap1\n      dup2\n      mstore\n      0x20\n      add\n      0x00\n      keccak256\n        /* \"contracts/exampleMappingStruct.sol\":707:751  return balances[_from].deposits[_depositNum] */\n      mload(0x40)\n      dup1\n      0x40\n      add\n      0x40\n      mstore\n      swap1\n      dup2\n      0x00\n      dup3\n      add\n      sload\n      dup2\n      mstore\n      0x20\n      add\n      0x01\n      dup3\n      add\n      sload\n      dup2\n      mstore\n      pop\n      pop\n      swap1\n      pop\n        /* \"contracts/exampleMappingStruct.sol\":594:758  function getWithdrawalDetail (address _from, uint _depositNum) public view returns(Transaction memory) {... */\n      swap3\n      swap2\n      pop\n      pop\n      jump\t// out\n    tag_42:\n      mload(0x40)\n      dup1\n      0x40\n      add\n      0x40\n      mstore\n      dup1\n      0x00\n      dup2\n      mstore\n      0x20\n      add\n      0x00\n      dup2\n      mstore\n      pop\n      swap1\n      jump\t// out\n        /* \"#utility.yul\":88:205   */\n    tag_47:\n        /* \"#utility.yul\":197:198   */\n      0x00\n        /* \"#utility.yul\":194:195   */\n      dup1\n        /* \"#utility.yul\":187:199   */\n      revert\n        /* \"#utility.yul\":334:460   */\n    tag_49:\n        /* \"#utility.yul\":371:378   */\n      0x00\n        /* \"#utility.yul\":411:453   */\n      0xffffffffffffffffffffffffffffffffffffffff\n        /* \"#utility.yul\":404:409   */\n      dup3\n        /* \"#utility.yul\":400:454   */\n      and\n        /* \"#utility.yul\":389:454   */\n      swap1\n      pop\n        /* \"#utility.yul\":334:460   */\n      swap2\n      swap1\n      pop\n      jump\t// out\n        /* \"#utility.yul\":466:562   */\n    tag_50:\n        /* \"#utility.yul\":503:510   */\n      0x00\n        /* \"#utility.yul\":532:556   */\n      tag_66\n        /* \"#utility.yul\":550:555   */\n      dup3\n        /* \"#utility.yul\":532:556   */\n      tag_49\n      jump\t// in\n    tag_66:\n        /* \"#utility.yul\":521:556   */\n      swap1\n      pop\n        /* \"#utility.yul\":466:562   */\n      swap2\n      swap1\n      pop\n      jump\t// out\n        /* \"#utility.yul\":568:690   */\n    tag_51:\n        /* \"#utility.yul\":641:665   */\n      tag_68\n        /* \"#utility.yul\":659:664   */\n      dup2\n        /* \"#utility.yul\":641:665   */\n      tag_50\n      jump\t// in\n    tag_68:\n        /* \"#utility.yul\":634:639   */\n      dup2\n        /* \"#utility.yul\":631:666   */\n      eq\n        /* \"#utility.yul\":621:684   */\n      tag_69\n      jumpi\n        /* \"#utility.yul\":680:681   */\n      0x00\n        /* \"#utility.yul\":677:678   */\n      dup1\n        /* \"#utility.yul\":670:682   */\n      revert\n        /* \"#utility.yul\":621:684   */\n    tag_69:\n        /* \"#utility.yul\":568:690   */\n      pop\n      jump\t// out\n        /* \"#utility.yul\":696:835   */\n    tag_52:\n        /* \"#utility.yul\":742:747   */\n      0x00\n        /* \"#utility.yul\":780:786   */\n      dup2\n        /* \"#utility.yul\":767:787   */\n      calldataload\n        /* \"#utility.yul\":758:787   */\n      swap1\n      pop\n        /* \"#utility.yul\":796:829   */\n      tag_71\n        /* \"#utility.yul\":823:828   */\n      dup2\n        /* \"#utility.yul\":796:829   */\n      tag_51\n      jump\t// in\n    tag_71:\n        /* \"#utility.yul\":696:835   */\n      swap3\n      swap2\n      pop\n      pop\n      jump\t// out\n        /* \"#utility.yul\":841:1170   */\n    tag_12:\n        /* \"#utility.yul\":900:906   */\n      0x00\n        /* \"#utility.yul\":949:951   */\n      0x20\n        /* \"#utility.yul\":937:946   */\n      dup3\n        /* \"#utility.yul\":928:935   */\n      dup5\n        /* \"#utility.yul\":924:947   */\n      sub\n        /* \"#utility.yul\":920:952   */\n      slt\n        /* \"#utility.yul\":917:1036   */\n      iszero\n      tag_73\n      jumpi\n        /* \"#utility.yul\":955:1034   */\n      tag_74\n      tag_47\n      jump\t// in\n    tag_74:\n        /* \"#utility.yul\":917:1036   */\n    tag_73:\n        /* \"#utility.yul\":1075:1076   */\n      0x00\n        /* \"#utility.yul\":1100:1153   */\n      tag_75\n        /* \"#utility.yul\":1145:1152   */\n      dup5\n        /* \"#utility.yul\":1136:1142   */\n      dup3\n        /* \"#utility.yul\":1125:1134   */\n      dup6\n        /* \"#utility.yul\":1121:1143   */\n      add\n        /* \"#utility.yul\":1100:1153   */\n      tag_52\n      jump\t// in\n    tag_75:\n        /* \"#utility.yul\":1090:1153   */\n      swap2\n      pop\n        /* \"#utility.yul\":1046:1163   */\n      pop\n        /* \"#utility.yul\":841:1170   */\n      swap3\n      swap2\n      pop\n      pop\n      jump\t// out\n        /* \"#utility.yul\":1176:1253   */\n    tag_53:\n        /* \"#utility.yul\":1213:1220   */\n      0x00\n        /* \"#utility.yul\":1242:1247   */\n      dup2\n        /* \"#utility.yul\":1231:1247   */\n      swap1\n      pop\n        /* \"#utility.yul\":1176:1253   */\n      swap2\n      swap1\n      pop\n      jump\t// out\n        /* \"#utility.yul\":1259:1377   */\n    tag_54:\n        /* \"#utility.yul\":1346:1370   */\n      tag_78\n        /* \"#utility.yul\":1364:1369   */\n      dup2\n        /* \"#utility.yul\":1346:1370   */\n      tag_53\n      jump\t// in\n    tag_78:\n        /* \"#utility.yul\":1341:1344   */\n      dup3\n        /* \"#utility.yul\":1334:1371   */\n      mstore\n        /* \"#utility.yul\":1259:1377   */\n      pop\n      pop\n      jump\t// out\n        /* \"#utility.yul\":1383:1825   */\n    tag_15:\n        /* \"#utility.yul\":1532:1536   */\n      0x00\n        /* \"#utility.yul\":1570:1572   */\n      0x60\n        /* \"#utility.yul\":1559:1568   */\n      dup3\n        /* \"#utility.yul\":1555:1573   */\n      add\n        /* \"#utility.yul\":1547:1573   */\n      swap1\n      pop\n        /* \"#utility.yul\":1583:1654   */\n      tag_80\n        /* \"#utility.yul\":1651:1652   */\n      0x00\n        /* \"#utility.yul\":1640:1649   */\n      dup4\n        /* \"#utility.yul\":1636:1653   */\n      add\n        /* \"#utility.yul\":1627:1633   */\n      dup7\n        /* \"#utility.yul\":1583:1654   */\n      tag_54\n      jump\t// in\n    tag_80:\n        /* \"#utility.yul\":1664:1736   */\n      tag_81\n        /* \"#utility.yul\":1732:1734   */\n      0x20\n        /* \"#utility.yul\":1721:1730   */\n      dup4\n        /* \"#utility.yul\":1717:1735   */\n      add\n        /* \"#utility.yul\":1708:1714   */\n      dup6\n        /* \"#utility.yul\":1664:1736   */\n      tag_54\n      jump\t// in\n    tag_81:\n        /* \"#utility.yul\":1746:1818   */\n      tag_82\n        /* \"#utility.yul\":1814:1816   */\n      0x40\n        /* \"#utility.yul\":1803:1812   */\n      dup4\n        /* \"#utility.yul\":1799:1817   */\n      add\n        /* \"#utility.yul\":1790:1796   */\n      dup5\n        /* \"#utility.yul\":1746:1818   */\n      tag_54\n      jump\t// in\n    tag_82:\n        /* \"#utility.yul\":1383:1825   */\n      swap5\n      swap4\n      pop\n      pop\n      pop\n      pop\n      jump\t// out\n        /* \"#utility.yul\":1831:1953   */\n    tag_55:\n        /* \"#utility.yul\":1904:1928   */\n      tag_84\n        /* \"#utility.yul\":1922:1927   */\n      dup2\n        /* \"#utility.yul\":1904:1928   */\n      tag_53\n      jump\t// in\n    tag_84:\n        /* \"#utility.yul\":1897:1902   */\n      dup2\n        /* \"#utility.yul\":1894:1929   */\n      eq\n        /* \"#utility.yul\":1884:1947   */\n      tag_85\n      jumpi\n        /* \"#utility.yul\":1943:1944   */\n      0x00\n        /* \"#utility.yul\":1940:1941   */\n      dup1\n        /* \"#utility.yul\":1933:1945   */\n      revert\n        /* \"#utility.yul\":1884:1947   */\n    tag_85:\n        /* \"#utility.yul\":1831:1953   */\n      pop\n      jump\t// out\n        /* \"#utility.yul\":1959:2098   */\n    tag_56:\n        /* \"#utility.yul\":2005:2010   */\n      0x00\n        /* \"#utility.yul\":2043:2049   */\n      dup2\n        /* \"#utility.yul\":2030:2050   */\n      calldataload\n        /* \"#utility.yul\":2021:2050   */\n      swap1\n      pop\n        /* \"#utility.yul\":2059:2092   */\n      tag_87\n        /* \"#utility.yul\":2086:2091   */\n      dup2\n        /* \"#utility.yul\":2059:2092   */\n      tag_55\n      jump\t// in\n    tag_87:\n        /* \"#utility.yul\":1959:2098   */\n      swap3\n      swap2\n      pop\n      pop\n      jump\t// out\n        /* \"#utility.yul\":2104:2433   */\n    tag_18:\n        /* \"#utility.yul\":2163:2169   */\n      0x00\n        /* \"#utility.yul\":2212:2214   */\n      0x20\n        /* \"#utility.yul\":2200:2209   */\n      dup3\n        /* \"#utility.yul\":2191:2198   */\n      dup5\n        /* \"#utility.yul\":2187:2210   */\n      sub\n        /* \"#utility.yul\":2183:2215   */\n      slt\n        /* \"#utility.yul\":2180:2299   */\n      iszero\n      tag_89\n      jumpi\n        /* \"#utility.yul\":2218:2297   */\n      tag_90\n      tag_47\n      jump\t// in\n    tag_90:\n        /* \"#utility.yul\":2180:2299   */\n    tag_89:\n        /* \"#utility.yul\":2338:2339   */\n      0x00\n        /* \"#utility.yul\":2363:2416   */\n      tag_91\n        /* \"#utility.yul\":2408:2415   */\n      dup5\n        /* \"#utility.yul\":2399:2405   */\n      dup3\n        /* \"#utility.yul\":2388:2397   */\n      dup6\n        /* \"#utility.yul\":2384:2406   */\n      add\n        /* \"#utility.yul\":2363:2416   */\n      tag_56\n      jump\t// in\n    tag_91:\n        /* \"#utility.yul\":2353:2416   */\n      swap2\n      pop\n        /* \"#utility.yul\":2309:2426   */\n      pop\n        /* \"#utility.yul\":2104:2433   */\n      swap3\n      swap2\n      pop\n      pop\n      jump\t// out\n        /* \"#utility.yul\":2439:2913   */\n    tag_23:\n        /* \"#utility.yul\":2507:2513   */\n      0x00\n        /* \"#utility.yul\":2515:2521   */\n      dup1\n        /* \"#utility.yul\":2564:2566   */\n      0x40\n        /* \"#utility.yul\":2552:2561   */\n      dup4\n        /* \"#utility.yul\":2543:2550   */\n      dup6\n        /* \"#utility.yul\":2539:2562   */\n      sub\n        /* \"#utility.yul\":2535:2567   */\n      slt\n        /* \"#utility.yul\":2532:2651   */\n      iszero\n      tag_93\n      jumpi\n        /* \"#utility.yul\":2570:2649   */\n      tag_94\n      tag_47\n      jump\t// in\n    tag_94:\n        /* \"#utility.yul\":2532:2651   */\n    tag_93:\n        /* \"#utility.yul\":2690:2691   */\n      0x00\n        /* \"#utility.yul\":2715:2768   */\n      tag_95\n        /* \"#utility.yul\":2760:2767   */\n      dup6\n        /* \"#utility.yul\":2751:2757   */\n      dup3\n        /* \"#utility.yul\":2740:2749   */\n      dup7\n        /* \"#utility.yul\":2736:2758   */\n      add\n        /* \"#utility.yul\":2715:2768   */\n      tag_52\n      jump\t// in\n    tag_95:\n        /* \"#utility.yul\":2705:2768   */\n      swap3\n      pop\n        /* \"#utility.yul\":2661:2778   */\n      pop\n        /* \"#utility.yul\":2817:2819   */\n      0x20\n        /* \"#utility.yul\":2843:2896   */\n      tag_96\n        /* \"#utility.yul\":2888:2895   */\n      dup6\n        /* \"#utility.yul\":2879:2885   */\n      dup3\n        /* \"#utility.yul\":2868:2877   */\n      dup7\n        /* \"#utility.yul\":2864:2886   */\n      add\n        /* \"#utility.yul\":2843:2896   */\n      tag_56\n      jump\t// in\n    tag_96:\n        /* \"#utility.yul\":2833:2896   */\n      swap2\n      pop\n        /* \"#utility.yul\":2788:2906   */\n      pop\n        /* \"#utility.yul\":2439:2913   */\n      swap3\n      pop\n      swap3\n      swap1\n      pop\n      jump\t// out\n        /* \"#utility.yul\":2919:3027   */\n    tag_57:\n        /* \"#utility.yul\":2996:3020   */\n      tag_98\n        /* \"#utility.yul\":3014:3019   */\n      dup2\n        /* \"#utility.yul\":2996:3020   */\n      tag_53\n      jump\t// in\n    tag_98:\n        /* \"#utility.yul\":2991:2994   */\n      dup3\n        /* \"#utility.yul\":2984:3021   */\n      mstore\n        /* \"#utility.yul\":2919:3027   */\n      pop\n      pop\n      jump\t// out\n        /* \"#utility.yul\":3123:3639   */\n    tag_58:\n        /* \"#utility.yul\":3272:3276   */\n      0x40\n        /* \"#utility.yul\":3267:3270   */\n      dup3\n        /* \"#utility.yul\":3263:3277   */\n      add\n        /* \"#utility.yul\":3361:3365   */\n      0x00\n        /* \"#utility.yul\":3354:3359   */\n      dup3\n        /* \"#utility.yul\":3350:3366   */\n      add\n        /* \"#utility.yul\":3344:3367   */\n      mload\n        /* \"#utility.yul\":3380:3443   */\n      tag_100\n        /* \"#utility.yul\":3437:3441   */\n      0x00\n        /* \"#utility.yul\":3432:3435   */\n      dup6\n        /* \"#utility.yul\":3428:3442   */\n      add\n        /* \"#utility.yul\":3414:3426   */\n      dup3\n        /* \"#utility.yul\":3380:3443   */\n      tag_57\n      jump\t// in\n    tag_100:\n        /* \"#utility.yul\":3287:3453   */\n      pop\n        /* \"#utility.yul\":3540:3544   */\n      0x20\n        /* \"#utility.yul\":3533:3538   */\n      dup3\n        /* \"#utility.yul\":3529:3545   */\n      add\n        /* \"#utility.yul\":3523:3546   */\n      mload\n        /* \"#utility.yul\":3559:3622   */\n      tag_101\n        /* \"#utility.yul\":3616:3620   */\n      0x20\n        /* \"#utility.yul\":3611:3614   */\n      dup6\n        /* \"#utility.yul\":3607:3621   */\n      add\n        /* \"#utility.yul\":3593:3605   */\n      dup3\n        /* \"#utility.yul\":3559:3622   */\n      tag_57\n      jump\t// in\n    tag_101:\n        /* \"#utility.yul\":3463:3632   */\n      pop\n        /* \"#utility.yul\":3241:3639   */\n      pop\n        /* \"#utility.yul\":3123:3639   */\n      pop\n      pop\n      jump\t// out\n        /* \"#utility.yul\":3645:3971   */\n    tag_26:\n        /* \"#utility.yul\":3790:3794   */\n      0x00\n        /* \"#utility.yul\":3828:3830   */\n      0x40\n        /* \"#utility.yul\":3817:3826   */\n      dup3\n        /* \"#utility.yul\":3813:3831   */\n      add\n        /* \"#utility.yul\":3805:3831   */\n      swap1\n      pop\n        /* \"#utility.yul\":3841:3964   */\n      tag_103\n        /* \"#utility.yul\":3961:3962   */\n      0x00\n        /* \"#utility.yul\":3950:3959   */\n      dup4\n        /* \"#utility.yul\":3946:3963   */\n      add\n        /* \"#utility.yul\":3937:3943   */\n      dup5\n        /* \"#utility.yul\":3841:3964   */\n      tag_58\n      jump\t// in\n    tag_103:\n        /* \"#utility.yul\":3645:3971   */\n      swap3\n      swap2\n      pop\n      pop\n      jump\t// out\n        /* \"#utility.yul\":3977:4157   */\n    tag_59:\n        /* \"#utility.yul\":4025:4102   */\n      0x4e487b7100000000000000000000000000000000000000000000000000000000\n        /* \"#utility.yul\":4022:4023   */\n      0x00\n        /* \"#utility.yul\":4015:4103   */\n      mstore\n        /* \"#utility.yul\":4122:4126   */\n      0x11\n        /* \"#utility.yul\":4119:4120   */\n      0x04\n        /* \"#utility.yul\":4112:4127   */\n      mstore\n        /* \"#utility.yul\":4146:4150   */\n      0x24\n        /* \"#utility.yul\":4143:4144   */\n      0x00\n        /* \"#utility.yul\":4136:4151   */\n      revert\n        /* \"#utility.yul\":4163:4468   */\n    tag_34:\n        /* \"#utility.yul\":4203:4206   */\n      0x00\n        /* \"#utility.yul\":4222:4242   */\n      tag_106\n        /* \"#utility.yul\":4240:4241   */\n      dup3\n        /* \"#utility.yul\":4222:4242   */\n      tag_53\n      jump\t// in\n    tag_106:\n        /* \"#utility.yul\":4217:4242   */\n      swap2\n      pop\n        /* \"#utility.yul\":4256:4276   */\n      tag_107\n        /* \"#utility.yul\":4274:4275   */\n      dup4\n        /* \"#utility.yul\":4256:4276   */\n      tag_53\n      jump\t// in\n    tag_107:\n        /* \"#utility.yul\":4251:4276   */\n      swap3\n      pop\n        /* \"#utility.yul\":4410:4411   */\n      dup3\n        /* \"#utility.yul\":4342:4408   */\n      0xffffffffffffffffffffffffffffffffffffffffffffffffffffffffffffffff\n        /* \"#utility.yul\":4338:4412   */\n      sub\n        /* \"#utility.yul\":4335:4336   */\n      dup3\n        /* \"#utility.yul\":4332:4413   */\n      gt\n        /* \"#utility.yul\":4329:4436   */\n      iszero\n      tag_108\n      jumpi\n        /* \"#utility.yul\":4416:4434   */\n      tag_109\n      tag_59\n      jump\t// in\n    tag_109:\n        /* \"#utility.yul\":4329:4436   */\n    tag_108:\n        /* \"#utility.yul\":4460:4461   */\n      dup3\n        /* \"#utility.yul\":4457:4458   */\n      dup3\n        /* \"#utility.yul\":4453:4462   */\n      add\n        /* \"#utility.yul\":4446:4462   */\n      swap1\n      pop\n        /* \"#utility.yul\":4163:4468   */\n      swap3\n      swap2\n      pop\n      pop\n      jump\t// out\n        /* \"#utility.yul\":4474:4707   */\n    tag_36:\n        /* \"#utility.yul\":4513:4516   */\n      0x00\n        /* \"#utility.yul\":4536:4560   */\n      tag_111\n        /* \"#utility.yul\":4554:4559   */\n      dup3\n        /* \"#utility.yul\":4536:4560   */\n      tag_53\n      jump\t// in\n    tag_111:\n        /* \"#utility.yul\":4527:4560   */\n      swap2\n      pop\n        /* \"#utility.yul\":4582:4648   */\n      0xffffffffffffffffffffffffffffffffffffffffffffffffffffffffffffffff\n        /* \"#utility.yul\":4575:4580   */\n      dup3\n        /* \"#utility.yul\":4572:4649   */\n      sub\n        /* \"#utility.yul\":4569:4672   */\n      tag_112\n      jumpi\n        /* \"#utility.yul\":4652:4670   */\n      tag_113\n      tag_59\n      jump\t// in\n    tag_113:\n        /* \"#utility.yul\":4569:4672   */\n    tag_112:\n        /* \"#utility.yul\":4699:4700   */\n      0x01\n        /* \"#utility.yul\":4692:4697   */\n      dup3\n        /* \"#utility.yul\":4688:4701   */\n      add\n        /* \"#utility.yul\":4681:4701   */\n      swap1\n      pop\n        /* \"#utility.yul\":4474:4707   */\n      swap2\n      swap1\n      pop\n      jump\t// out\n        /* \"#utility.yul\":4713:4904   */\n    tag_39:\n        /* \"#utility.yul\":4753:4757   */\n      0x00\n        /* \"#utility.yul\":4773:4793   */\n      tag_115\n        /* \"#utility.yul\":4791:4792   */\n      dup3\n        /* \"#utility.yul\":4773:4793   */\n      tag_53\n      jump\t// in\n    tag_115:\n        /* \"#utility.yul\":4768:4793   */\n      swap2\n      pop\n        /* \"#utility.yul\":4807:4827   */\n      tag_116\n        /* \"#utility.yul\":4825:4826   */\n      dup4\n        /* \"#utility.yul\":4807:4827   */\n      tag_53\n      jump\t// in\n    tag_116:\n        /* \"#utility.yul\":4802:4827   */\n      swap3\n      pop\n        /* \"#utility.yul\":4846:4847   */\n      dup3\n        /* \"#utility.yul\":4843:4844   */\n      dup3\n        /* \"#utility.yul\":4840:4848   */\n      lt\n        /* \"#utility.yul\":4837:4871   */\n      iszero\n      tag_117\n      jumpi\n        /* \"#utility.yul\":4851:4869   */\n      tag_118\n      tag_59\n      jump\t// in\n    tag_118:\n        /* \"#utility.yul\":4837:4871   */\n    tag_117:\n        /* \"#utility.yul\":4896:4897   */\n      dup3\n        /* \"#utility.yul\":4893:4894   */\n      dup3\n        /* \"#utility.yul\":4889:4898   */\n      sub\n        /* \"#utility.yul\":4881:4898   */\n      swap1\n      pop\n        /* \"#utility.yul\":4713:4904   */\n      swap3\n      swap2\n      pop\n      pop\n      jump\t// out\n\n    auxdata: 0xa26469706673582212202707b062498b18b8eea15b418b4db32fb3bf87e4ce8491aa6339b36302235bf664736f6c634300080f0033\n}\n",
				"bytecode": {
					"linkReferences": {},
					"object": "608060405234801561001057600080fd5b5061086a806100206000396000f3fe60806040526004361061004a5760003560e01c806316c05aa21461004f57806327e235e3146100595780635487692114610098578063579c15c5146100b45780636f06ee50146100f1575b600080fd5b61005761012e565b005b34801561006557600080fd5b50610080600480360381019061007b91906105c4565b6102a4565b60405161008f9392919061060a565b60405180910390f35b6100b260048036038101906100ad919061066d565b6102ce565b005b3480156100c057600080fd5b506100db60048036038101906100d6919061069a565b610445565b6040516100e89190610718565b60405180910390f35b3480156100fd57600080fd5b506101186004803603810190610113919061069a565b6104c6565b6040516101259190610718565b60405180910390f35b346000803373ffffffffffffffffffffffffffffffffffffffff1673ffffffffffffffffffffffffffffffffffffffff168152602001908152602001600020600001600082825461017f9190610762565b9250508190555060006040518060400160405280348152602001428152509050806000803373ffffffffffffffffffffffffffffffffffffffff1673ffffffffffffffffffffffffffffffffffffffff16815260200190815260200160002060030160008060003373ffffffffffffffffffffffffffffffffffffffff1673ffffffffffffffffffffffffffffffffffffffff16815260200190815260200160002060010154815260200190815260200160002060008201518160000155602082015181600101559050506000803373ffffffffffffffffffffffffffffffffffffffff1673ffffffffffffffffffffffffffffffffffffffff168152602001908152602001600020600101600081548092919061029c906107b8565b919050555050565b60006020528060005260406000206000915090508060000154908060010154908060020154905083565b806000803373ffffffffffffffffffffffffffffffffffffffff1673ffffffffffffffffffffffffffffffffffffffff168152602001908152602001600020600001600082825461031f9190610800565b9250508190555060006040518060400160405280838152602001428152509050806000803373ffffffffffffffffffffffffffffffffffffffff1673ffffffffffffffffffffffffffffffffffffffff16815260200190815260200160002060040160008060003373ffffffffffffffffffffffffffffffffffffffff1673ffffffffffffffffffffffffffffffffffffffff16815260200190815260200160002060020154815260200190815260200160002060008201518160000155602082015181600101559050506000803373ffffffffffffffffffffffffffffffffffffffff1673ffffffffffffffffffffffffffffffffffffffff168152602001908152602001600020600201600081548092919061043c906107b8565b91905055505050565b61044d610547565b6000808473ffffffffffffffffffffffffffffffffffffffff1673ffffffffffffffffffffffffffffffffffffffff168152602001908152602001600020600301600083815260200190815260200160002060405180604001604052908160008201548152602001600182015481525050905092915050565b6104ce610547565b6000808473ffffffffffffffffffffffffffffffffffffffff1673ffffffffffffffffffffffffffffffffffffffff168152602001908152602001600020600301600083815260200190815260200160002060405180604001604052908160008201548152602001600182015481525050905092915050565b604051806040016040528060008152602001600081525090565b600080fd5b600073ffffffffffffffffffffffffffffffffffffffff82169050919050565b600061059182610566565b9050919050565b6105a181610586565b81146105ac57600080fd5b50565b6000813590506105be81610598565b92915050565b6000602082840312156105da576105d9610561565b5b60006105e8848285016105af565b91505092915050565b6000819050919050565b610604816105f1565b82525050565b600060608201905061061f60008301866105fb565b61062c60208301856105fb565b61063960408301846105fb565b949350505050565b61064a816105f1565b811461065557600080fd5b50565b60008135905061066781610641565b92915050565b60006020828403121561068357610682610561565b5b600061069184828501610658565b91505092915050565b600080604083850312156106b1576106b0610561565b5b60006106bf858286016105af565b92505060206106d085828601610658565b9150509250929050565b6106e3816105f1565b82525050565b6040820160008201516106ff60008501826106da565b50602082015161071260208501826106da565b50505050565b600060408201905061072d60008301846106e9565b92915050565b7f4e487b7100000000000000000000000000000000000000000000000000000000600052601160045260246000fd5b600061076d826105f1565b9150610778836105f1565b9250827fffffffffffffffffffffffffffffffffffffffffffffffffffffffffffffffff038211156107ad576107ac610733565b5b828201905092915050565b60006107c3826105f1565b91507fffffffffffffffffffffffffffffffffffffffffffffffffffffffffffffffff82036107f5576107f4610733565b5b600182019050919050565b600061080b826105f1565b9150610816836105f1565b92508282101561082957610828610733565b5b82820390509291505056fea26469706673582212202707b062498b18b8eea15b418b4db32fb3bf87e4ce8491aa6339b36302235bf664736f6c634300080f0033",
					"opcodes": "PUSH1 0x80 PUSH1 0x40 MSTORE CALLVALUE DUP1 ISZERO PUSH2 0x10 JUMPI PUSH1 0x0 DUP1 REVERT JUMPDEST POP PUSH2 0x86A DUP1 PUSH2 0x20 PUSH1 0x0 CODECOPY PUSH1 0x0 RETURN INVALID PUSH1 0x80 PUSH1 0x40 MSTORE PUSH1 0x4 CALLDATASIZE LT PUSH2 0x4A JUMPI PUSH1 0x0 CALLDATALOAD PUSH1 0xE0 SHR DUP1 PUSH4 0x16C05AA2 EQ PUSH2 0x4F JUMPI DUP1 PUSH4 0x27E235E3 EQ PUSH2 0x59 JUMPI DUP1 PUSH4 0x54876921 EQ PUSH2 0x98 JUMPI DUP1 PUSH4 0x579C15C5 EQ PUSH2 0xB4 JUMPI DUP1 PUSH4 0x6F06EE50 EQ PUSH2 0xF1 JUMPI JUMPDEST PUSH1 0x0 DUP1 REVERT JUMPDEST PUSH2 0x57 PUSH2 0x12E JUMP JUMPDEST STOP JUMPDEST CALLVALUE DUP1 ISZERO PUSH2 0x65 JUMPI PUSH1 0x0 DUP1 REVERT JUMPDEST POP PUSH2 0x80 PUSH1 0x4 DUP1 CALLDATASIZE SUB DUP2 ADD SWAP1 PUSH2 0x7B SWAP2 SWAP1 PUSH2 0x5C4 JUMP JUMPDEST PUSH2 0x2A4 JUMP JUMPDEST PUSH1 0x40 MLOAD PUSH2 0x8F SWAP4 SWAP3 SWAP2 SWAP1 PUSH2 0x60A JUMP JUMPDEST PUSH1 0x40 MLOAD DUP1 SWAP2 SUB SWAP1 RETURN JUMPDEST PUSH2 0xB2 PUSH1 0x4 DUP1 CALLDATASIZE SUB DUP2 ADD SWAP1 PUSH2 0xAD SWAP2 SWAP1 PUSH2 0x66D JUMP JUMPDEST PUSH2 0x2CE JUMP JUMPDEST STOP JUMPDEST CALLVALUE DUP1 ISZERO PUSH2 0xC0 JUMPI PUSH1 0x0 DUP1 REVERT JUMPDEST POP PUSH2 0xDB PUSH1 0x4 DUP1 CALLDATASIZE SUB DUP2 ADD SWAP1 PUSH2 0xD6 SWAP2 SWAP1 PUSH2 0x69A JUMP JUMPDEST PUSH2 0x445 JUMP JUMPDEST PUSH1 0x40 MLOAD PUSH2 0xE8 SWAP2 SWAP1 PUSH2 0x718 JUMP JUMPDEST PUSH1 0x40 MLOAD DUP1 SWAP2 SUB SWAP1 RETURN JUMPDEST CALLVALUE DUP1 ISZERO PUSH2 0xFD JUMPI PUSH1 0x0 DUP1 REVERT JUMPDEST POP PUSH2 0x118 PUSH1 0x4 DUP1 CALLDATASIZE SUB DUP2 ADD SWAP1 PUSH2 0x113 SWAP2 SWAP1 PUSH2 0x69A JUMP JUMPDEST PUSH2 0x4C6 JUMP JUMPDEST PUSH1 0x40 MLOAD PUSH2 0x125 SWAP2 SWAP1 PUSH2 0x718 JUMP JUMPDEST PUSH1 0x40 MLOAD DUP1 SWAP2 SUB SWAP1 RETURN JUMPDEST CALLVALUE PUSH1 0x0 DUP1 CALLER PUSH20 0xFFFFFFFFFFFFFFFFFFFFFFFFFFFFFFFFFFFFFFFF AND PUSH20 0xFFFFFFFFFFFFFFFFFFFFFFFFFFFFFFFFFFFFFFFF AND DUP2 MSTORE PUSH1 0x20 ADD SWAP1 DUP2 MSTORE PUSH1 0x20 ADD PUSH1 0x0 KECCAK256 PUSH1 0x0 ADD PUSH1 0x0 DUP3 DUP3 SLOAD PUSH2 0x17F SWAP2 SWAP1 PUSH2 0x762 JUMP JUMPDEST SWAP3 POP POP DUP2 SWAP1 SSTORE POP PUSH1 0x0 PUSH1 0x40 MLOAD DUP1 PUSH1 0x40 ADD PUSH1 0x40 MSTORE DUP1 CALLVALUE DUP2 MSTORE PUSH1 0x20 ADD TIMESTAMP DUP2 MSTORE POP SWAP1 POP DUP1 PUSH1 0x0 DUP1 CALLER PUSH20 0xFFFFFFFFFFFFFFFFFFFFFFFFFFFFFFFFFFFFFFFF AND PUSH20 0xFFFFFFFFFFFFFFFFFFFFFFFFFFFFFFFFFFFFFFFF AND DUP2 MSTORE PUSH1 0x20 ADD SWAP1 DUP2 MSTORE PUSH1 0x20 ADD PUSH1 0x0 KECCAK256 PUSH1 0x3 ADD PUSH1 0x0 DUP1 PUSH1 0x0 CALLER PUSH20 0xFFFFFFFFFFFFFFFFFFFFFFFFFFFFFFFFFFFFFFFF AND PUSH20 0xFFFFFFFFFFFFFFFFFFFFFFFFFFFFFFFFFFFFFFFF AND DUP2 MSTORE PUSH1 0x20 ADD SWAP1 DUP2 MSTORE PUSH1 0x20 ADD PUSH1 0x0 KECCAK256 PUSH1 0x1 ADD SLOAD DUP2 MSTORE PUSH1 0x20 ADD SWAP1 DUP2 MSTORE PUSH1 0x20 ADD PUSH1 0x0 KECCAK256 PUSH1 0x0 DUP3 ADD MLOAD DUP2 PUSH1 0x0 ADD SSTORE PUSH1 0x20 DUP3 ADD MLOAD DUP2 PUSH1 0x1 ADD SSTORE SWAP1 POP POP PUSH1 0x0 DUP1 CALLER PUSH20 0xFFFFFFFFFFFFFFFFFFFFFFFFFFFFFFFFFFFFFFFF AND PUSH20 0xFFFFFFFFFFFFFFFFFFFFFFFFFFFFFFFFFFFFFFFF AND DUP2 MSTORE PUSH1 0x20 ADD SWAP1 DUP2 MSTORE PUSH1 0x20 ADD PUSH1 0x0 KECCAK256 PUSH1 0x1 ADD PUSH1 0x0 DUP2 SLOAD DUP1 SWAP3 SWAP2 SWAP1 PUSH2 0x29C SWAP1 PUSH2 0x7B8 JUMP JUMPDEST SWAP2 SWAP1 POP SSTORE POP POP JUMP JUMPDEST PUSH1 0x0 PUSH1 0x20 MSTORE DUP1 PUSH1 0x0 MSTORE PUSH1 0x40 PUSH1 0x0 KECCAK256 PUSH1 0x0 SWAP2 POP SWAP1 POP DUP1 PUSH1 0x0 ADD SLOAD SWAP1 DUP1 PUSH1 0x1 ADD SLOAD SWAP1 DUP1 PUSH1 0x2 ADD SLOAD SWAP1 POP DUP4 JUMP JUMPDEST DUP1 PUSH1 0x0 DUP1 CALLER PUSH20 0xFFFFFFFFFFFFFFFFFFFFFFFFFFFFFFFFFFFFFFFF AND PUSH20 0xFFFFFFFFFFFFFFFFFFFFFFFFFFFFFFFFFFFFFFFF AND DUP2 MSTORE PUSH1 0x20 ADD SWAP1 DUP2 MSTORE PUSH1 0x20 ADD PUSH1 0x0 KECCAK256 PUSH1 0x0 ADD PUSH1 0x0 DUP3 DUP3 SLOAD PUSH2 0x31F SWAP2 SWAP1 PUSH2 0x800 JUMP JUMPDEST SWAP3 POP POP DUP2 SWAP1 SSTORE POP PUSH1 0x0 PUSH1 0x40 MLOAD DUP1 PUSH1 0x40 ADD PUSH1 0x40 MSTORE DUP1 DUP4 DUP2 MSTORE PUSH1 0x20 ADD TIMESTAMP DUP2 MSTORE POP SWAP1 POP DUP1 PUSH1 0x0 DUP1 CALLER PUSH20 0xFFFFFFFFFFFFFFFFFFFFFFFFFFFFFFFFFFFFFFFF AND PUSH20 0xFFFFFFFFFFFFFFFFFFFFFFFFFFFFFFFFFFFFFFFF AND DUP2 MSTORE PUSH1 0x20 ADD SWAP1 DUP2 MSTORE PUSH1 0x20 ADD PUSH1 0x0 KECCAK256 PUSH1 0x4 ADD PUSH1 0x0 DUP1 PUSH1 0x0 CALLER PUSH20 0xFFFFFFFFFFFFFFFFFFFFFFFFFFFFFFFFFFFFFFFF AND PUSH20 0xFFFFFFFFFFFFFFFFFFFFFFFFFFFFFFFFFFFFFFFF AND DUP2 MSTORE PUSH1 0x20 ADD SWAP1 DUP2 MSTORE PUSH1 0x20 ADD PUSH1 0x0 KECCAK256 PUSH1 0x2 ADD SLOAD DUP2 MSTORE PUSH1 0x20 ADD SWAP1 DUP2 MSTORE PUSH1 0x20 ADD PUSH1 0x0 KECCAK256 PUSH1 0x0 DUP3 ADD MLOAD DUP2 PUSH1 0x0 ADD SSTORE PUSH1 0x20 DUP3 ADD MLOAD DUP2 PUSH1 0x1 ADD SSTORE SWAP1 POP POP PUSH1 0x0 DUP1 CALLER PUSH20 0xFFFFFFFFFFFFFFFFFFFFFFFFFFFFFFFFFFFFFFFF AND PUSH20 0xFFFFFFFFFFFFFFFFFFFFFFFFFFFFFFFFFFFFFFFF AND DUP2 MSTORE PUSH1 0x20 ADD SWAP1 DUP2 MSTORE PUSH1 0x20 ADD PUSH1 0x0 KECCAK256 PUSH1 0x2 ADD PUSH1 0x0 DUP2 SLOAD DUP1 SWAP3 SWAP2 SWAP1 PUSH2 0x43C SWAP1 PUSH2 0x7B8 JUMP JUMPDEST SWAP2 SWAP1 POP SSTORE POP POP POP JUMP JUMPDEST PUSH2 0x44D PUSH2 0x547 JUMP JUMPDEST PUSH1 0x0 DUP1 DUP5 PUSH20 0xFFFFFFFFFFFFFFFFFFFFFFFFFFFFFFFFFFFFFFFF AND PUSH20 0xFFFFFFFFFFFFFFFFFFFFFFFFFFFFFFFFFFFFFFFF AND DUP2 MSTORE PUSH1 0x20 ADD SWAP1 DUP2 MSTORE PUSH1 0x20 ADD PUSH1 0x0 KECCAK256 PUSH1 0x3 ADD PUSH1 0x0 DUP4 DUP2 MSTORE PUSH1 0x20 ADD SWAP1 DUP2 MSTORE PUSH1 0x20 ADD PUSH1 0x0 KECCAK256 PUSH1 0x40 MLOAD DUP1 PUSH1 0x40 ADD PUSH1 0x40 MSTORE SWAP1 DUP2 PUSH1 0x0 DUP3 ADD SLOAD DUP2 MSTORE PUSH1 0x20 ADD PUSH1 0x1 DUP3 ADD SLOAD DUP2 MSTORE POP POP SWAP1 POP SWAP3 SWAP2 POP POP JUMP JUMPDEST PUSH2 0x4CE PUSH2 0x547 JUMP JUMPDEST PUSH1 0x0 DUP1 DUP5 PUSH20 0xFFFFFFFFFFFFFFFFFFFFFFFFFFFFFFFFFFFFFFFF AND PUSH20 0xFFFFFFFFFFFFFFFFFFFFFFFFFFFFFFFFFFFFFFFF AND DUP2 MSTORE PUSH1 0x20 ADD SWAP1 DUP2 MSTORE PUSH1 0x20 ADD PUSH1 0x0 KECCAK256 PUSH1 0x3 ADD PUSH1 0x0 DUP4 DUP2 MSTORE PUSH1 0x20 ADD SWAP1 DUP2 MSTORE PUSH1 0x20 ADD PUSH1 0x0 KECCAK256 PUSH1 0x40 MLOAD DUP1 PUSH1 0x40 ADD PUSH1 0x40 MSTORE SWAP1 DUP2 PUSH1 0x0 DUP3 ADD SLOAD DUP2 MSTORE PUSH1 0x20 ADD PUSH1 0x1 DUP3 ADD SLOAD DUP2 MSTORE POP POP SWAP1 POP SWAP3 SWAP2 POP POP JUMP JUMPDEST PUSH1 0x40 MLOAD DUP1 PUSH1 0x40 ADD PUSH1 0x40 MSTORE DUP1 PUSH1 0x0 DUP2 MSTORE PUSH1 0x20 ADD PUSH1 0x0 DUP2 MSTORE POP SWAP1 JUMP JUMPDEST PUSH1 0x0 DUP1 REVERT JUMPDEST PUSH1 0x0 PUSH20 0xFFFFFFFFFFFFFFFFFFFFFFFFFFFFFFFFFFFFFFFF DUP3 AND SWAP1 POP SWAP2 SWAP1 POP JUMP JUMPDEST PUSH1 0x0 PUSH2 0x591 DUP3 PUSH2 0x566 JUMP JUMPDEST SWAP1 POP SWAP2 SWAP1 POP JUMP JUMPDEST PUSH2 0x5A1 DUP2 PUSH2 0x586 JUMP JUMPDEST DUP2 EQ PUSH2 0x5AC JUMPI PUSH1 0x0 DUP1 REVERT JUMPDEST POP JUMP JUMPDEST PUSH1 0x0 DUP2 CALLDATALOAD SWAP1 POP PUSH2 0x5BE DUP2 PUSH2 0x598 JUMP JUMPDEST SWAP3 SWAP2 POP POP JUMP JUMPDEST PUSH1 0x0 PUSH1 0x20 DUP3 DUP5 SUB SLT ISZERO PUSH2 0x5DA JUMPI PUSH2 0x5D9 PUSH2 0x561 JUMP JUMPDEST JUMPDEST PUSH1 0x0 PUSH2 0x5E8 DUP5 DUP3 DUP6 ADD PUSH2 0x5AF JUMP JUMPDEST SWAP2 POP POP SWAP3 SWAP2 POP POP JUMP JUMPDEST PUSH1 0x0 DUP2 SWAP1 POP SWAP2 SWAP1 POP JUMP JUMPDEST PUSH2 0x604 DUP2 PUSH2 0x5F1 JUMP JUMPDEST DUP3 MSTORE POP POP JUMP JUMPDEST PUSH1 0x0 PUSH1 0x60 DUP3 ADD SWAP1 POP PUSH2 0x61F PUSH1 0x0 DUP4 ADD DUP7 PUSH2 0x5FB JUMP JUMPDEST PUSH2 0x62C PUSH1 0x20 DUP4 ADD DUP6 PUSH2 0x5FB JUMP JUMPDEST PUSH2 0x639 PUSH1 0x40 DUP4 ADD DUP5 PUSH2 0x5FB JUMP JUMPDEST SWAP5 SWAP4 POP POP POP POP JUMP JUMPDEST PUSH2 0x64A DUP2 PUSH2 0x5F1 JUMP JUMPDEST DUP2 EQ PUSH2 0x655 JUMPI PUSH1 0x0 DUP1 REVERT JUMPDEST POP JUMP JUMPDEST PUSH1 0x0 DUP2 CALLDATALOAD SWAP1 POP PUSH2 0x667 DUP2 PUSH2 0x641 JUMP JUMPDEST SWAP3 SWAP2 POP POP JUMP JUMPDEST PUSH1 0x0 PUSH1 0x20 DUP3 DUP5 SUB SLT ISZERO PUSH2 0x683 JUMPI PUSH2 0x682 PUSH2 0x561 JUMP JUMPDEST JUMPDEST PUSH1 0x0 PUSH2 0x691 DUP5 DUP3 DUP6 ADD PUSH2 0x658 JUMP JUMPDEST SWAP2 POP POP SWAP3 SWAP2 POP POP JUMP JUMPDEST PUSH1 0x0 DUP1 PUSH1 0x40 DUP4 DUP6 SUB SLT ISZERO PUSH2 0x6B1 JUMPI PUSH2 0x6B0 PUSH2 0x561 JUMP JUMPDEST JUMPDEST PUSH1 0x0 PUSH2 0x6BF DUP6 DUP3 DUP7 ADD PUSH2 0x5AF JUMP JUMPDEST SWAP3 POP POP PUSH1 0x20 PUSH2 0x6D0 DUP6 DUP3 DUP7 ADD PUSH2 0x658 JUMP JUMPDEST SWAP2 POP POP SWAP3 POP SWAP3 SWAP1 POP JUMP JUMPDEST PUSH2 0x6E3 DUP2 PUSH2 0x5F1 JUMP JUMPDEST DUP3 MSTORE POP POP JUMP JUMPDEST PUSH1 0x40 DUP3 ADD PUSH1 0x0 DUP3 ADD MLOAD PUSH2 0x6FF PUSH1 0x0 DUP6 ADD DUP3 PUSH2 0x6DA JUMP JUMPDEST POP PUSH1 0x20 DUP3 ADD MLOAD PUSH2 0x712 PUSH1 0x20 DUP6 ADD DUP3 PUSH2 0x6DA JUMP JUMPDEST POP POP POP POP JUMP JUMPDEST PUSH1 0x0 PUSH1 0x40 DUP3 ADD SWAP1 POP PUSH2 0x72D PUSH1 0x0 DUP4 ADD DUP5 PUSH2 0x6E9 JUMP JUMPDEST SWAP3 SWAP2 POP POP JUMP JUMPDEST PUSH32 0x4E487B7100000000000000000000000000000000000000000000000000000000 PUSH1 0x0 MSTORE PUSH1 0x11 PUSH1 0x4 MSTORE PUSH1 0x24 PUSH1 0x0 REVERT JUMPDEST PUSH1 0x0 PUSH2 0x76D DUP3 PUSH2 0x5F1 JUMP JUMPDEST SWAP2 POP PUSH2 0x778 DUP4 PUSH2 0x5F1 JUMP JUMPDEST SWAP3 POP DUP3 PUSH32 0xFFFFFFFFFFFFFFFFFFFFFFFFFFFFFFFFFFFFFFFFFFFFFFFFFFFFFFFFFFFFFFFF SUB DUP3 GT ISZERO PUSH2 0x7AD JUMPI PUSH2 0x7AC PUSH2 0x733 JUMP JUMPDEST JUMPDEST DUP3 DUP3 ADD SWAP1 POP SWAP3 SWAP2 POP POP JUMP JUMPDEST PUSH1 0x0 PUSH2 0x7C3 DUP3 PUSH2 0x5F1 JUMP JUMPDEST SWAP2 POP PUSH32 0xFFFFFFFFFFFFFFFFFFFFFFFFFFFFFFFFFFFFFFFFFFFFFFFFFFFFFFFFFFFFFFFF DUP3 SUB PUSH2 0x7F5 JUMPI PUSH2 0x7F4 PUSH2 0x733 JUMP JUMPDEST JUMPDEST PUSH1 0x1 DUP3 ADD SWAP1 POP SWAP2 SWAP1 POP JUMP JUMPDEST PUSH1 0x0 PUSH2 0x80B DUP3 PUSH2 0x5F1 JUMP JUMPDEST SWAP2 POP PUSH2 0x816 DUP4 PUSH2 0x5F1 JUMP JUMPDEST SWAP3 POP DUP3 DUP3 LT ISZERO PUSH2 0x829 JUMPI PUSH2 0x828 PUSH2 0x733 JUMP JUMPDEST JUMPDEST DUP3 DUP3 SUB SWAP1 POP SWAP3 SWAP2 POP POP JUMP INVALID LOG2 PUSH5 0x6970667358 0x22 SLT KECCAK256 0x27 SMOD 0xB0 PUSH3 0x498B18 0xB8 0xEE LOG1 JUMPDEST COINBASE DUP12 0x4D 0xB3 0x2F 0xB3 0xBF DUP8 0xE4 0xCE DUP5 SWAP2 0xAA PUSH4 0x39B36302 0x23 JUMPDEST 0xF6 PUSH5 0x736F6C6343 STOP ADDMOD 0xF STOP CALLER "
				},
				"gasEstimates": {
					"creation": {
						"codeDepositCost": "430800",
						"executionCost": "468",
						"totalCost": "431268"
					},
					"external": {
						"balances(address)": "infinite",
						"depositMoney()": "infinite",
						"getDepositDetail(address,uint256)": "infinite",
						"getWithdrawalDetail(address,uint256)": "infinite",
						"withdrawMoney(uint256)": "infinite"
					}
				},
				"methodIdentifiers": {
					"balances(address)": "27e235e3",
					"depositMoney()": "16c05aa2",
					"getDepositDetail(address,uint256)": "579c15c5",
					"getWithdrawalDetail(address,uint256)": "6f06ee50",
					"withdrawMoney(uint256)": "54876921"
				}
			},
			"storageLayout": {
				"storage": [
					{
						"astId": 28,
						"contract": "contracts/exampleMappingStruct.sol:ExampleMappingStruct",
						"label": "balances",
						"offset": 0,
						"slot": "0",
						"type": "t_mapping(t_address,t_struct(Balance)23_storage)"
					}
				],
				"types": {
					"t_address": {
						"encoding": "inplace",
						"label": "address",
						"numberOfBytes": "20"
					},
					"t_mapping(t_address,t_struct(Balance)23_storage)": {
						"encoding": "mapping",
						"key": "t_address",
						"label": "mapping(address => struct ExampleMappingStruct.Balance)",
						"numberOfBytes": "32",
						"value": "t_struct(Balance)23_storage"
					},
					"t_mapping(t_uint256,t_struct(Transaction)6_storage)": {
						"encoding": "mapping",
						"key": "t_uint256",
						"label": "mapping(uint256 => struct ExampleMappingStruct.Transaction)",
						"numberOfBytes": "32",
						"value": "t_struct(Transaction)6_storage"
					},
					"t_struct(Balance)23_storage": {
						"encoding": "inplace",
						"label": "struct ExampleMappingStruct.Balance",
						"members": [
							{
								"astId": 8,
								"contract": "contracts/exampleMappingStruct.sol:ExampleMappingStruct",
								"label": "totalBal",
								"offset": 0,
								"slot": "0",
								"type": "t_uint256"
							},
							{
								"astId": 10,
								"contract": "contracts/exampleMappingStruct.sol:ExampleMappingStruct",
								"label": "numDeposits",
								"offset": 0,
								"slot": "1",
								"type": "t_uint256"
							},
							{
								"astId": 12,
								"contract": "contracts/exampleMappingStruct.sol:ExampleMappingStruct",
								"label": "numWithdrawals",
								"offset": 0,
								"slot": "2",
								"type": "t_uint256"
							},
							{
								"astId": 17,
								"contract": "contracts/exampleMappingStruct.sol:ExampleMappingStruct",
								"label": "deposits",
								"offset": 0,
								"slot": "3",
								"type": "t_mapping(t_uint256,t_struct(Transaction)6_storage)"
							},
							{
								"astId": 22,
								"contract": "contracts/exampleMappingStruct.sol:ExampleMappingStruct",
								"label": "withdrawals",
								"offset": 0,
								"slot": "4",
								"type": "t_mapping(t_uint256,t_struct(Transaction)6_storage)"
							}
						],
						"numberOfBytes": "160"
					},
					"t_struct(Transaction)6_storage": {
						"encoding": "inplace",
						"label": "struct ExampleMappingStruct.Transaction",
						"members": [
							{
								"astId": 3,
								"contract": "contracts/exampleMappingStruct.sol:ExampleMappingStruct",
								"label": "amount",
								"offset": 0,
								"slot": "0",
								"type": "t_uint256"
							},
							{
								"astId": 5,
								"contract": "contracts/exampleMappingStruct.sol:ExampleMappingStruct",
								"label": "timestamp",
								"offset": 0,
								"slot": "1",
								"type": "t_uint256"
							}
						],
						"numberOfBytes": "64"
					},
					"t_uint256": {
						"encoding": "inplace",
						"label": "uint256",
						"numberOfBytes": "32"
					}
				}
			},
			"userdoc": {
				"kind": "user",
				"methods": {},
				"version": 1
			}
		}
	}
}